:020000040800F2
:10000000D808002045010008F5230008F723000860
:10001000FB230008FF230008032400080000000061
:10002000000000000000000000000000072400089D
:1000300009240008000000000B2400080D2400081B
:100040005F0100085F0100085F0100085F01000810
:100050005F0100085F010008C52400085F01000877
:100060005F0100085F0100085F0100085F010008F0
:100070005F0100085F0100085F0100085F010008E0
:100080005F0100085F0100085F0100085F010008D0
:100090005F0100085F0100085F0100085F010008C0
:1000A0005F0100085F0100085F0100085F010008B0
:1000B0005F010008152500082B2500085F010008D6
:1000C0005F0100085F0100085F0100085F01000890
:1000D0005F01000899240008152400085F0100084A
:1000E0005F0100085F0100085F0100085F01000870
:1000F0005F0100085F0100085F0100085F01000860
:100100005F0100085F0100085F0100085F0100084F
:100110005F0100085F0100085F0100085F0100083F
:100120005F0100085F0100085F0100085F0100082F
:10013000DFF80CD003F018FC00480047E920000865
:10014000D80800200648804706480047FEE7FEE73B
:10015000FEE7FEE7FEE7FEE7FEE7FEE7FEE7FEE777
:1001600045020008310100080CB500200190009004
:100170006B48006840F480306949086000BF6848F7
:10018000006800F4003000900198401C0190009835
:1001900018B90198B0F5A06FF1D16148006810F46A
:1001A000003F02D00120009001E000200090009864
:1001B000012842D15B48006840F0100059490860AE
:1001C0000846006820F0030008600846006840F018
:1001D000020008605248406851494860084640683B
:1001E00048600846406840F48060486008464068BF
:1001F00020F47C1048600846406840F4E8104860ED
:100200000846006840F08070086000BF44480068FD
:1002100010F0007FFAD04248406820F003004049C7
:1002200048600846406840F00200486000BF3C4813
:10023000406800F00C000828F9D10CBD10B5FFF79C
:1002400093FF10BD10B53648006840F001003449F6
:10025000086008464068344908403149486008460B
:100260000068324908402E4908600846006820F4BA
:10027000802008600846406820F4FE0048604FF483
:100280001F008860FFF7DAFF4FF000602849086020
:1002900010BD10B5002100200022214B5B6803F047
:1002A0000C0121B1042906D0082928D107E0214BEF
:1002B000214C236027E01F4B1F4C236023E0184B89
:1002C0005B6803F47010164B5B6803F48032022302
:1002D00003EB904022B9194B4343174C23600DE0C8
:1002E0000F4B5B6813F4003F04D0144B4343124C94
:1002F000236003E00F4B43430F4C236003E00D4B9F
:100300000D4C236000BF00BF054B5B68C3F30313B4
:100310000B4CE15C084B1B68CB40074C236010BDC5
:1003200000100240002002400000FFF8FFFFF6FE30
:1003300008ED00E000127A000000002000093D00F6
:100340000400002031490143314A1160704770B503
:10035000002100230F22C4780CB32D4C246804F430
:10036000E064C4F5E064210AC1F10403CA404478A2
:1003700004FA03F18478144021430901254C0678DE
:10038000A155047804F01F050124AC4005786D11D7
:100390004FF0E02606EB8505C5F8004109E004783A
:1003A00004F01F050124AC401B4D0678761145F87A
:1003B000264070BD194A0A400243154B1B1F1A60A4
:1003C000704739B1124A121D12680243104B1B1DAF
:1003D0001A6006E00E4A121D126882430C4B1B1D68
:1003E0001A607047042808D14FF0E021096941F0F4
:1003F00004014FF0E022116107E04FF0E0210969AC
:1004000021F004014FF0E022116170470000FA056D
:100410000CED00E000E400E080E100E080FFFF1F61
:1004200001684FF6FE7211400160002101604160D9
:100430008160C1608C49884208D18B49083949687C
:1004400041F00F01884A083A51608AE08649143128
:10045000884208D184490839496841F0F001824A4C
:10046000083A51607DE080492831884208D17E49B0
:100470000839496841F470617B4A083A516070E07C
:1004800079493C31884208D177490839496841F4B3
:100490007041754A083A516063E0734950318842AF
:1004A00008D171490839496841F470216E4A083A07
:1004B000516056E06C496431884208D16A49083974
:1004C000496841F47001684A083A516049E0664958
:1004D0007831884208D164490839496841F070612F
:1004E000614A083A51603CE06049884206D1011FE8
:1004F000096841F00F01021F116032E05B491431BD
:10050000884208D15949091F096841F0F001574A4A
:10051000121F116025E055492831884208D15349FE
:10052000091F096841F47061504A121F116018E0F8
:100530004E493C31884208D14C49091F096841F4B1
:1005400070414A4A121F11600BE0484950318842FD
:1005500007D14649091F096841F47021434A121F17
:100560001160704710B50022026847F6F0739A4395
:100570000C6A8B6823430C6923434C6923438C69C1
:100580002343CC6923434C6A23438C6A23431A4395
:100590000260CB6843600B6883604B68C36010BD2A
:1005A0000021016041608160C16001614161816140
:1005B000C161016241628162704721B1026842F00B
:1005C0000102026004E002684FF6FE731A40026006
:1005D00070471AB103680B43036002E003688B4362
:1005E00003607047416070470146486880B27047B9
:1005F00001460020002211F0805F03D01B4B083B16
:100600001A6802E0184B083B1A680A4201D0012020
:1006100000E00020704710F0805F03D01349091FED
:10062000086002E010490839486070470146002020
:10063000002211F0805F03D00C4B083B1A6802E0E7
:10064000094B083B1A680A4201D0012000E0002053
:10065000704710F0805F03D00449091F086002E072
:100660000149083948607047080002400804024008
:10067000002044490860091D0860091D0860091D23
:10068000086041483F4914310860704700213D49E6
:100690008279002A3AD00A46126803689A430B46C8
:1006A0001A600A1D126803689A430B1D1A600279CA
:1006B00011440A6803681A430A60324A0832126811
:1006C00003689A432F4B08331A601A1D1268036897
:1006D0009A432C4B0C331A604279102A0ED11A1F00
:1006E000126803681A43274B08331A601A1D1268F0
:1006F00003681A43234B0C331A600DE021494279F9
:1007000011440A6803681A430A6005E0027911443B
:100710000A6803689A430A6070470021016001710A
:100720000C2141710021817170471649103109680F
:100730000143144A10321160704701460020114AEB
:10074000143212680A4201D0012000E000207047F4
:100750000C49143108607047014600200022094B03
:100760001B6803EA0102074B14331B680B4202D0DB
:100770000AB1012000E000207047024914310860EE
:100780007047000000040140FFFF0F0010B5044651
:10079000CA48844208D10121042000F027FB00212F
:1007A000042000F023FB46E0C548844208D1012123
:1007B000082000F01BFB0021082000F017FB3AE0A6
:1007C000C048844208D10121102000F00FFB002115
:1007D000102000F00BFB2EE0BB48844208D1012121
:1007E000202000F003FB0021202000F0FFFA22E08F
:1007F000B648844208D10121402000F0F7FA0021D8
:10080000402000F0F3FA16E0B148844208D10121FB
:10081000802000F0EBFA0021802000F0E7FA0AE0E7
:10082000AC48844207D10121801500F0DFFA002195
:10083000A01500F0DBFA10BD10B50121084600F04C
:10084000D5FA0021012000F0D1FA10BD2DE9F041C8
:10085000024600250026002000230024002791F8EE
:1008600003C00CF00F0591F803C01CF0100F03D06B
:1008700091F802C04CEA050591F800C0BCF1000FE8
:1008800031D0146800202BE04FF0010C0CFA00F37B
:10089000B1F800C00CEA03069E4220D183004FF05D
:1008A0000F0C0CFA03F7BC4305FA03FC4CEA0404F2
:1008B00091F803C0BCF1280F06D14FF0010C0CFADF
:1008C00000FCC2F814C00AE091F803C0BCF1480F64
:1008D00005D14FF0010C0CFA00FCC2F810C0401C0E
:1008E0000828D1D31460B1F800C0BCF1FF0F34DD8B
:1008F000546800202EE000F1080C4FF0010808FABF
:100900000CF3B1F800C00CEA03069E4221D183002B
:100910004FF00F0C0CFA03F7BC4305FA03FC4CEA4A
:10092000040491F803C0BCF1280F05D100F1080CB4
:1009300008FA0CF8C2F8148091F803C0BCF1480F13
:1009400007D100F1080C4FF0010808FA0CF8C2F8C2
:100950001080401C0828CED35460BDE8F0814FF6CB
:10096000FF710180022181700421C170704702462D
:10097000002093680B4201D0012000E00020704766
:100980000146886880B2704702460020D3680B4257
:1009900001D0012000E0002070470146C86880B205
:1009A000704701617047416170470AB1016100E021
:1009B00041617047C16070474FF480320A438261E1
:1009C0008161826182698269704702460020424BE0
:1009D00018684FF68073184040EA021008433E4BF7
:1009E000186070473D49C8617047F0B50A4600235A
:1009F00000240021002500F00046B6F1004F02D18E
:100A0000354EF16901E0344E7168C0F3034583B29D
:100A100000F44016B6F5401F08D121F070612E4E4B
:100A2000766826F070662C4F7E6012E000F4801627
:100A3000B6F5801F06D1032606FA05F4A14341F05E
:100A4000706106E0460D360103FA06F6B14341F047
:100A5000706122B1460D360103FA06F6314300F00B
:100A60000046B6F1004F02D11B4EF16101E01A4E73
:100A70007160F0BD30B500228B071C0F0F2303FA05
:100A800004F2154B08338C1053F824309343124C66
:100A900008348D1044F8253023468C1053F8243048
:100AA0008C07240F00FA04F423430B4C08348D10F8
:100AB00044F8253030BD0A490860704700080140FD
:100AC000000C0140001001400014014000180140DA
:100AD000001C0140002001400000014000002042B5
:100AE000DC002042DD48006840F00100DB4908607E
:100AF00008464068DA490840D84948600846006816
:100B0000D8490840D54908600846006820F480208C
:100B100008600846406820F4FE0048604FF41F005B
:100B200088607047CD49096821F48031CB4A116053
:100B30001146096821F480211160B0F5803F03D08F
:100B4000B0F5802F0ED106E0C449096841F4803128
:100B5000C24A116007E0C149096841F4A021BF4AB7
:100B6000116000E000BF00BF704710B501460022D1
:100B7000002300204A11012A02D1B84C236806E064
:100B8000022A02D1B54C236A01E0B44C636A01F039
:100B90001F02012494401C4201D0012000E00020EB
:100BA00010BD38B5002000900024002500BF312082
:100BB000FFF7DBFF05460098401C00900098B0F559
:100BC000A06F01D0002DF2D03120FFF7CEFF08B189
:100BD000012400E00024204638BD014600209F4A41
:100BE000106820F0F80040EAC100106070479E498C
:100BF0000860704702460020984B586820F47C102B
:100C000042EA01031843954B5860704796490866BD
:100C1000704701460020914A506820F003000843C5
:100C2000506070478D48406800F00C0070470146E6
:100C300000208A4A506820F0F00008435060704756
:100C400001460020854A506820F4E0600843506067
:100C5000704701460020814A506820F4605040EA05
:100C6000C1005060704729B17C4A527A02437B4BE5
:100C70005A7204E0794A527A8243784B5A7270472A
:100C80007A490860704701460020744A506820F491
:100C900040400843506070470021754A11706F4A08
:100CA00082F82010012802D0042808D103E0012195
:100CB0006F4A117004E005216D4A117000E000BF19
:100CC00000BF70476B49086070476449096A014377
:100CD000624A11627047674944390860704730B50D
:100CE00000210022002400235C4D6D6805F00C01FA
:100CF00021B1042905D0082923D105E05E4D056006
:100D000022E05D4D05601FE0544D6D6805F47012E2
:100D1000524D6D6805F48034022505EB92421CB9F2
:100D2000564D554305600BE04C4D6D6815F4003F82
:100D300003D0524D5543056002E04F4D55430560C9
:100D400002E04D4D056000BF00BF444D6D6805F0E9
:100D5000F00109094A4D6B5C0568DD4045603F4D77
:100D60006D6805F4E061090A454D6B5C4568DD403E
:100D700085603A4D6D6805F46051C90A404D6B5C61
:100D80004568DD40C560354D6D6805F44041890B0F
:100D90003C4D6B5CC568B5FBF3F5056130BD29B111
:100DA0002E4A526902432D4B5A6104E02B4A526984
:100DB00082432A4B5A61704729B1284A92690243FB
:100DC000264B9A6104E0254A92698243234B9A613B
:100DD000704729B1214AD2690243204BDA6104E00D
:100DE0001E4AD26982431D4BDA61704729B11B4A02
:100DF000D2680243194BDA6004E0184AD268824391
:100E0000164BDA60704729B1144A12690243134B3A
:100E10001A6104E0114A12698243104B1A6170474B
:100E200014494039086070470F49C86470470B493E
:100E3000C87170470948406A40F0807007494862AD
:100E4000704701460020054A92680A4201D00120FD
:100E500000E000207047014988727047001002408E
:100E60000000FFF8FFFFF6FE00004242D8004242B9
:100E7000201002408004424200127A0000093D0026
:100E8000140000202400002010B50446FE488442CF
:100E900008D10121C014FFF7A9FF0021E014FFF7DA
:100EA000A5FFC4E0B4F1804F08D101210846FFF747
:100EB000AAFF00210120FFF7A6FFB8E0F348844213
:100EC00008D101210220FFF79EFF00210220FFF739
:100ED0009AFFACE0EE48844208D101210420FFF7DC
:100EE00092FF00210420FFF78EFFA0E0E948844232
:100EF00008D101210820FFF786FF00210820FFF715
:100F000082FF94E0E448844208D101211020FFF7D9
:100F10007AFF00211020FFF776FF88E0DF48844247
:100F200008D101212020FFF76EFF00212020FFF7CC
:100F30006AFF7CE0DA48844208D101214014FFF7BF
:100F400055FF00216014FFF751FF70E0D54884423F
:100F500009D10121C804FFF749FF00214FF4002007
:100F6000FFF744FF63E0D048844209D1012108051E
:100F7000FFF73CFF00214FF48010FFF737FF56E0EA
:100F8000CA48844209D101214805FFF72FFF0021FB
:100F90004FF40010FFF72AFF49E0C548844208D10A
:100FA00001214020FFF72FFF00214020FFF72BFFFA
:100FB0003DE0C048844208D101218020FFF723FF93
:100FC00000218020FFF71FFF31E0BB48844208D199
:100FD00001218015FFF717FF0021A015FFF713FF70
:100FE00025E0B648844209D101210804FFF7FEFE3E
:100FF00000214FF48030FFF7F9FE18E0B04884423A
:1010000009D101214804FFF7F1FE00214FF400301F
:10101000FFF7ECFE0BE0AB48844208D101218804C5
:10102000FFF7E4FE00214FF48020FFF7DFFE10BD44
:1010300000220288944B98420ED0994B98420BD0D4
:10104000B0F1804F08D0914B984205D0904B984218
:1010500002D0904B984204D14FF68F731A404B88C0
:101060001A438D4B984207D08C4B984204D04FF6D0
:10107000FF431A40CB881A4302808B8883850B88F4
:101080000385814B98420BD0854B984208D08B4BFF
:10109000984205D08A4B984202D08A4B984201D19F
:1010A0000B7A038601238382704770B500240022E7
:1010B0000023058C4FF6FE7635400584028C83882C
:1010C000048B4FF68F752C40B51E2C400D882C4399
:1010D000751E2A400D892A434D882A436A4DA8422D
:1010E0000BD06F4DA84208D0744DA84205D0744D66
:1010F000A84202D0734DA84213D14FF6F7752A408B
:101100004D892A434FF6FB752A408D882A434FF6B6
:10111000FF652B404FF6FF552B408D892B43CD8922
:101120002B4383800483CD888586028470BD70B58F
:10113000002400220023058C4FF6EF76354005840D
:10114000028C8388048B48F6FF752C404FF6FF45D0
:101150002C400D884FF6FF7606EA05252C434FF606
:10116000DF752A400D8906EA05152A434D8806EAEF
:1011700005152A43444DA84202D0494DA8421DD12D
:101180004FF67F752A404D894FF6FF7606EA051522
:101190002A434FF6BF752A408D8806EA05152A4373
:1011A0004FF6FF352B404FF2FF752B408D8906EA35
:1011B00085052B43CD8906EA85052B43838004836F
:1011C000CD880587028470BD70B5002400220023FD
:1011D000058C4FF6FF6635400584028C8388848B2E
:1011E0004FF68F752C404FF6FC752C400D882C4324
:1011F0004FF6FF552A400D894FF6FF7606EA052582
:101200002A434D8806EA05252A431F4DA84202D0ED
:10121000234DA8421DD14FF2FF752A404D894FF64C
:10122000FF7606EA05252A434FF6FF352A408D88CA
:1012300006EA05252A434EF6FF752B404DF6FF754D
:101240002B408D8906EA05152B43CD8906EA051545
:101250002B4383808483CD888587028470BD70B5DD
:10126000002200230024058C4EF6FF7635400584CD
:10127000038C8488828B48F6FF752A404FF6FF4521
:101280002A400D8820E00000002C014000040040AE
:1012900000080040000C0040001000400014004016
:1012A00000340140004C0140005001400054014016
:1012B00000180040001C0040002000400040014099
:1012C00000440140004801404FF6FF7606EA05253C
:1012D0002A434DF6FF752B400D8906EA05352B4351
:1012E0004D8806EA05352B43FA4DA84202D0FA4D47
:1012F000A84208D14BF6FF752C408D894FF6FF763A
:1013000006EA85152C4384808283CD88A0F840505E
:10131000038470BD828B4FF2FF331A408283828B2D
:101320004FF6FF7303EA01231A4382837047F0B537
:101330000C461546002200210026078C4EF6FF7C45
:1013400007EA0C070784828B018C4FF6FF7707EAC8
:10135000043640F6FF473A404FF6FF7707EA052785
:101360003A434FF6FF7707EA03373A43D94FB8427B
:101370000ED0D94FB8420BD0B0F1804F08D0D74F24
:10138000B84205D0D64FB84202D0D64FB84206D1A7
:101390004DF6FF77394046F48057394305E047F66C
:1013A000FF57394044F48057394382830184F0BDAC
:1013B000828B4FF6F3731A408283828B0A438283B7
:1013C0007047F0B50C461546002200210026078C18
:1013D0004FF6FF6C07EA0C070784828B018C4FF6EF
:1013E000FF7707EA04264FF60C773A404FF6FF776F
:1013F00007EA03172F433A43B64FB8420ED0B64F11
:10140000B8420BD0B0F1804F08D0B44FB84205D0ED
:10141000B34FB84202D0B34FB84206D14FF6FF5790
:10142000394046F48077394305E04FF2FF573940A1
:1014300044F48077394382830184F0BD028B4FF2FC
:10144000FF331A400283028B4FF6FF7303EA012336
:101450001A4302837047F0B50C461546002200215E
:101460000026078C4FF6EF7C07EA0C070784028BF7
:10147000018C4FF6FF7707EA041640F6FF473A4023
:101480004FF6FF7707EA03373A434FF6FF7707EA4D
:1014900005273A438F4FB8420ED08F4FB8420BD03A
:1014A000B0F1804F08D08D4FB84205D08C4FB84274
:1014B00002D08C4FB84206D14FF6DF77394046F064
:1014C0001007394305E04FF65F77394044F01007C5
:1014D000394302830184F0BD028B4FF6F3731A4047
:1014E0000283028B0A4302837047F0B50C4615460F
:1014F00000220021068C4FF6FE773E400684028BC8
:10150000018C4FF60C7632407E1C06EA03162E4301
:101510003243704EB0420ED06F4EB0420BD0B0F19D
:10152000804F08D06D4EB04205D06D4EB04202D013
:101530006C4EB04206D14FF6FD76314044F00106C4
:10154000314305E04FF6F576314044F00106314372
:1015500002830184F0BD70B505460C465D488542A6
:101560000ED05D4885420BD0B5F1804F08D05B4866
:10157000854205D05A48854202D05A48854200D15A
:1015800000E000BF208850B92389A28861882846DE
:10159000FFF7ABFFE1882846FFF79EFF25E0208894
:1015A00004280AD12389A28861882846FFF753FFBF
:1015B000E1882846FFF742FF17E0208808280AD173
:1015C0002389A28861882846FFF7FBFEE188284628
:1015D000FFF7EEFE09E02389A28861882846FFF71D
:1015E000A6FEE1882846FFF795FE70BD2DE9F04183
:1015F00005460C4600260127608808B9022600E04F
:101600000026A088012801D1022700E001272088B8
:10161000A0B92389A28861882846FFF766FFE18880
:101620002846FFF759FF23893A4631462846FFF7F7
:1016300012FFE1882846FFF701FF13E02389A28803
:1016400061882846FFF707FFE1882846FFF7F6FE86
:1016500023893A4631462846FFF747FFE188284666
:10166000FFF73AFFBDE8F0810A884B881A438B8860
:101670001A43CB881A430B891A434B891A438B8927
:101680001A43A0F8442070474FF6FF718180002173
:101690000180C1804180017270470021018041803A
:1016A0008180C180018141818181C1817047002198
:1016B00001804180012181800021C180018170472A
:1016C0000021018041808180C1800181418181812F
:1016D00070470000002C014000340140000400402D
:1016E00000080040000C004021B1028842F00102D5
:1016F000028004E002884FF6FE731A4002807047B1
:1017000031B1B0F8442042F40042A0F8442005E092
:10171000B0F84420C2F30E02A0F8442070471AB17A
:1017200083890B43838102E083898B4383817047E4
:101730008182704741EA0203A0F8483070471AB12D
:1017400083890B43838102E083898B4383817047C4
:1017500001894FF6F8721140018170470A46002155
:1017600001894FF68F73194011430181704730B5DD
:1017700004460D4629462046FFF7F0FF208940F039
:101780000700208130BD2DE9F04104460D46164684
:101790001F46602D06D13B46012231462046FFF709
:1017A0005AFE05E03B46012231462046FFF79DFEEA
:1017B00029462046FFF7D2FF208940F0070020810C
:1017C000BDE8F08130B50C4600210189C9B24FF661
:1017D000FF7505EA0325154325432943018130BDE3
:1017E0002DE9F04105460E4617469846002443462B
:1017F0003A4631462846FFF7E5FF2C894FF6F87048
:10180000044044F007044FF68F70044044F0700425
:101810002C81BDE8F081F0B504460D4616461F4602
:101820003B46324629462046FFF7CCFF208940F44C
:1018300080402081F0BD0185828270470A460021E8
:1018400001884FF68F731940114301807047F0B53E
:101850000C4615461E460021002200230189028BFA
:10186000038C4FF6F877394021434FF6FC473A4056
:1018700040F201173A434FF6DD773B404FF6FF77D2
:1018800007EA06172F433B43018102830384F0BD1F
:101890000A460021018B4FF68F73194011430183D3
:1018A00070470A460021018B48F6FF7319404FF636
:1018B000FF7303EA02231943018370470A4600219C
:1018C000818B4FF68F7319401143818370470A460D
:1018D0000021818B48F6FF7319404FF6FF7303EA2E
:1018E000022319438183704721B1028842F08002AC
:1018F000028004E002884FF67F731A40028070472E
:1019000021B1828842F00402828004E082884FF68E
:10191000FB731A408280704721B1828842F008022E
:10192000828004E082884FF6F7731A408280704705
:1019300021B1828842F00102828004E082884FF661
:10194000FE731A40828070470A460021018B4FF6D1
:10195000F77319401143018370470A460021018B38
:101960004FF2FF7319404FF6FF7303EA0223194346
:10197000018370470A460021818B4FF6F7731940A7
:101980001143818370470A460021818B4FF2FF7318
:1019900019404FF6FF7303EA02231943818370470E
:1019A0000A460021018B4FF6FB7319401143018356
:1019B00070470A460021018B4FF6FF3319404FF65E
:1019C000FF7303EA02231943018370470A4600218B
:1019D000818B4FF6FB7319401143818370470A4690
:1019E0000021818B4FF6FF3319404FF6FF7303EA56
:1019F00002231943818370470A460021018B4FF669
:101A00007F7319401143018370470A460021018BFF
:101A1000C1F30E014FF6FF7303EA0223194301835A
:101A200070470A460021818B4FF67F73194011439E
:101A3000818370470A460021818BC1F30E014FF666
:101A4000FF7303EA02231943818370470A4600218A
:101A5000018C4FF6FD7319401143018470470A460B
:101A60000021018C4FF6F773194011430184704730
:101A70000A460021018C4FF6DF7319404FF6FF73C1
:101A800003EA02131943018470470A460021018CBE
:101A90004FF67F7319404FF6FF7303EA02131943A1
:101AA000018470470A460021018C4FF6FF5319400C
:101AB0004FF6FF7303EA02231943018470470A4675
:101AC0000021018C4FF2FF7319404FF6FF7303EAB8
:101AD00002231943018470470A460021018C4DF608
:101AE000FF7319404FF6FF7303EA02331943018471
:101AF000704730B5002301248C40A3B2048C9C4372
:101B00000484048C02FA01F5ADB22C43048430BD88
:101B100030B5002304248C40A3B2048C9C4304847D
:101B2000048C02FA01F5ADB22C43048430BD70B5CB
:101B30000346002000241846183001258D40ACB221
:101B40001D8CA5431D8409B1082909D100EB610052
:101B5000056825F0700505600568154305600EE011
:101B60000D1FC5F34E052844056825F4E0450560C2
:101B700005684FF6FF7606EA02263543056070BD1C
:101B800021B1028842F00202028004E002884FF68E
:101B9000FD731A400280704721B1028842F00402AE
:101BA000028004E002884FF6FB731A4002807047FF
:101BB00021B1828842F08002828004E082884FF660
:101BC0007F731A408280704702884FF6F7731A407D
:101BD000028002880A430280704782884FF68F7322
:101BE0001A40828082880A438280704702894FF6B9
:101BF000F8731A40028102890A4302817047028900
:101C00004FF67F731A40028102890A4302817047AE
:101C1000818470478185704781867047018770474E
:101C200081877047A0F84010704702884FF6FF4345
:101C30001A40028002880A43028070470146888E5B
:101C400070470146088F70470146888F70470146EC
:101C5000B1F8400070470146888C70470146088DF6
:101C6000704702460020138A0B4201D0012000E099
:101C700000207047CA430282704730B502460020F8
:101C800000230024158A05EA0103958905EA010469
:101C900013B10CB1012000E0002030BDCA43028224
:101CA0007047000010B50446FB48844209D1012169
:101CB0008803FFF79BF800214FF48040FFF796F868
:101CC00032E0F648844209D101214804FFF79BF82D
:101CD00000214FF40030FFF796F825E0F0488442E9
:101CE00009D101218804FFF78EF800214FF48020EC
:101CF000FFF789F818E0EB48844209D10121C804B4
:101D0000FFF781F800214FF40020FFF77CF80BE08B
:101D1000E548844208D101210805FFF774F8002145
:101D20004FF48010FFF76FF810BD2DE9F04786B033
:101D300005460E460024A24600BFA1460027B089F2
:101D400000B100BF2F462C8A4CF6FF700440F0888B
:101D500004432C82AC894EF6F3100440B0883189DC
:101D60000843718908430443AC81AC8A4FF6FF40B5
:101D70000440B0890443AC8201A8FEF7B0FFC64816
:101D8000874202D1DDF810A001E0DDF80CA0A8899F
:101D900010F4004F08D00AEBCA0000EB0A103168BB
:101DA0004900B0FBF1F807E00AEBCA0000EB0A10AB
:101DB00031688900B0FBF1F86420B8FBF0F0040151
:101DC0002009642101FB1089A88910F4004F08D074
:101DD000322000EBC900B0FBF1F000F00700044333
:101DE00008E0322000EB09106421B0FBF1F000F0B4
:101DF0000F0004432C8106B0BDE8F0874FF4165164
:101E0000016000218180C18001810C21418100217C
:101E10008181704710B502460020108A4FF2FF03FF
:101E200018400B884C8823438C882343CC88234359
:101E30001843108210BD0021018041808180C18043
:101E4000704721B1828942F40052828104E0828984
:101E50004DF6FF731A4082817047F0B503460024A7
:101E6000002600250020A1F510676A3F00D100BFC1
:101E70001846C1F3421401F01F06012707FA06F5C0
:101E8000012C01D10C3004E0022C01D1103000E013
:101E900014301AB107682F43076002E00768AF43A8
:101EA0000760F0BD1AB1838A0B43838202E0838A04
:101EB0008B4383827047028A4FF6F0731A40028286
:101EC000028A0A430282704782894FF2FF731A40E6
:101ED000828182890A438281704721B1828942F0DE
:101EE0000202828104E082894FF6FD731A408281EA
:101EF0007047028A4FF6DF731A400282028A0A4351
:101F00000282704721B1028A42F48042028204E0D8
:101F1000028A4BF6FF731A4002827047C1F308022F
:101F20008280704701468888C0F308007047818925
:101F300041F0010181817047028BD2B20283028B92
:101F400042EA012202837047028B02F47F4202833D
:101F5000028B0A430283704721B1828A42F0200239
:101F6000828204E0828A4FF6DF731A4082827047D1
:101F700021B1828A42F01002828204E0828A4FF606
:101F8000EF731A408282704721B1828A42F00802C0
:101F9000828204E0828A4FF6F7731A408282704789
:101FA00021B1828942F40042828103E08289C2F336
:101FB0000E028281704721B1828A42F400628282DD
:101FC00004E0828A4FF2FF731A4082827047828A4D
:101FD0004FF6FB731A408282828A0A4382827047DC
:101FE00021B1828A42F00202828204E0828A4FF6A4
:101FF000FD731A408282704702460020B1F5007FCF
:1020000000D100BF13880B4201D0012000E0002066
:10201000704701F40072B2F5007F00D100BFCA43DF
:102020000280704770B5024600240023002500207E
:10203000A1F510666A3E00D100BFC1F3421501F060
:102040001F03012606FA03F3012D02D196893340BE
:1020500006E0022D02D1168A334001E0968A334011
:102060000C12012606FA04F41688344013B10CB1A0
:10207000012000E0002070BD10B500220023A1F572
:1020800010646A3C00D100BF0A1201249440A3B23C
:10209000DC43048010BD00000038014000440040D3
:1020A00000480040004C00400050004010B51F4860
:1020B0000078412806D0422807D0432808D0442879
:1020C00010D10CE000F09DFC0CE000F0CDFC09E02C
:1020D00001F0E6F9154800210180817002E000F06E
:1020E00096FD00BF00BF10BD00F02AF900F0BCFD56
:1020F00001F0F7F900F070FC00F005F900F07DFF49
:1021000001200B49087000200A4908700CE0C82023
:1021100000F04CF901F0C4F9FFF7C8FF044800785B
:10212000012801D100F02BFDF1E70000D0000020D4
:10213000290000202A00002008B501210420FEF714
:102140003BFE0320ADF8000010208DF803000320B3
:102150008DF8020069467848FEF778FB0121764841
:10216000FEF721FC02217448FEF71BFC08BD08B5F0
:10217000012144F20400FEF71FFE4FF40070ADF899
:10218000000018208DF8030003208DF80200694636
:102190006948FEF75BFB04208DF803000002ADF8F0
:1021A000000069466448FEF751FB08BD08B50121EF
:1021B0000420FEF701FE01214804FEF70AFE042078
:1021C000ADF8000018208DF8030003208DF8020000
:1021D00069465948FEF73AFB0820ADF80000042094
:1021E0008DF8030069465448FEF730FB08BD08B57A
:1021F000012141F20400FEF7DFFD1020ADF80000E0
:102200008DF8030003208DF8020069464A48FEF766
:102210001DFB2020ADF8000018208DF80300694652
:102220004548FEF713FB8020ADF8000069464248A0
:10223000FEF70CFB4020ADF8000069463E48FEF773
:1022400005FB08BD08B5012141F20400FEF7B4FD0D
:102250000420ADF8000010208DF8030003208DF855
:10226000020069463548FEF7F1FA0820ADF8000093
:1022700018208DF8030069463048FEF7E7FA102071
:10228000ADF8000069462D48FEF7E0FA2020ADF8D1
:10229000000069462948FEF7D9FA08BD08B50121B2
:1022A0000420FEF796FD01210820FEF785FD402061
:1022B000ADF8000018208DF8030003208DF802000F
:1022C00069461E48FEF7C2FA08BD08B50121022082
:1022D000FEF77FFD01210C20FEF76EFD4020ADF8DA
:1022E000000018208DF8030003208DF802006946D5
:1022F0001148FEF7ABFA0120ADF8000069460F481F
:10230000FEF7A4FA08BD08B501210420FEF754FD2C
:1023100041F61210ADF8000004208DF803000320F0
:102320008DF8020069460448FEF790FA69460248B3
:10233000FEF78CFA08BD000000080140000C0140C7
:1023400030B5284800684FF47A72B0FBF2F1B1F171
:10235000807F01D301201DE021F07F40401E4FF01F
:10236000E022506150170F22002807DA13071D0ED4
:102370001D4B00F00F04241F1D5503E013071C0E16
:102380001A4B1C5400BF00204FF0E0229061072040
:102390001061002008B100BFFEE74FF0E0200069A7
:1023A00020F001004FF0E021086130BD01B5104977
:1023B000009808604FF0E020006940F001004FF005
:1023C000E021086100BF0A4800680028FBD108BD71
:1023D0000748006820B106480068401E04490860AC
:1023E000704700000000002018ED00E000E400E06D
:1023F0002C000020704700BFFEE700BFFEE700BFD3
:10240000FEE700BFFEE770477047704710B5FFF763
:10241000DFFF10BD10B54FF458714948FFF702FEB9
:10242000012807D14648001D0088C4B2214644480F
:10243000FFF774FD40F224414148FFF7F3FD012806
:1024400029D100213F48FEF7B8F84FF40010FEF7FD
:10245000E2F83C486C38006FC0F580603A49B1F84A
:10246000001460F30E013848A0F800140021B0F801
:102470000004C0F30E00344A11544FF48060314917
:102480006C3908671046886701212E48FEF795F8D9
:102490002B48FFF747FD10BD10B540F225512B48E2
:1024A000FFF7C0FD01280CD140F225512748FFF766
:1024B000E3FD2648FFF736FDC4B2214624A001F013
:1024C00085FA10BD10B50120FEF746F908B3214882
:1024D000007880B920202049086008201F49086042
:1024E00001201C49087008201C49086020201A4956
:1024F000091F08600AE017480078012806D1082063
:102500001649091D08600220124908700120FEF7D3
:1025100034F910BD10B501211148FFF7AEFB18B119
:1025200001210F48FFF7BAFB10BD10B501210D487E
:10253000FFF7A3FB18B101210A48FFF7AFFB10BD5D
:10254000004400406C000240D000002000380140F0
:1025500025630000CB000020140C01401014014042
:1025600000040040000800401FB54FF4E130009027
:102570000020ADF80400ADF80600ADF80800ADF895
:102580000C000C20ADF80A006946C448FFF7CDFBEB
:10259000012240F22551C148FFF75FFC0121BF48ED
:1025A000FFF74FFC1FBD70B504460D46E1B2BB48B6
:1025B000FFF7B4FC00BF8021B848FFF71DFD0028DD
:1025C000F9D0204670BD10B5044600BF2021B348A5
:1025D000FFF712FD0028F9D0B048FFF7A3FC10BDAB
:1025E00008B54FF4A060FDF7ADFE26208DF8000081
:1025F00001208DF801008DF802008DF80300684677
:10260000FDF7A5FE25208DF8000002208DF80100C1
:102610006846FDF79CFE08BD1FB54FF4E130009001
:102620000020ADF80400ADF80600ADF80800ADF8E4
:102630000C000C20ADF80A0069469948FFF775FBBD
:10264000012240F224419648FFF707FC01224FF493
:1026500058719348FFF701FC01219148FFF7F1FB06
:102660001FBDF0B503460D461646002729460A2E23
:1026700003D0002008702846F0BD33B9302001F89F
:10268000010B002008702846F6E7002B03DA2D2006
:1026900001F8010B5B4242F210720DE093FBF2F481
:1026A00004B937B104F1300001F8010B04FB123317
:1026B00001270A2092FBF0F2002AEFDC00200870CC
:1026C0002846D9E70FB470B586B006460CA801902D
:1026D00073E00B9800785C281CD10B98401C0B9081
:1026E00000786E2809D072280FD10D213046FFF7EF
:1026F00015FC0B98401C0B900BE00A213046FFF7AD
:102700000DFC0B98401C0B9003E00B98401C0B90A9
:1027100000BF4BE00B980078252840D10B98401C57
:102720000B900078642818D0732833D1019810C812
:1027300001900BE021783046FFF7F0FB00BF8021CD
:102740003046FFF759FC0028F9D0641C2078002897
:10275000F0D10B98401C0B9020E0019820C801900C
:102760000A2202A92846FFF77CFF02AC0BE0217881
:102770003046FFF7D3FB00BF80213046FFF73CFC1B
:102780000028F9D0641C20780028F0D10B98401C58
:102790000B9003E00B98401C0B9000BF06E00B98D9
:1027A00010F8011B0B903046FFF7B8FB00BF8021EB
:1027B0003046FFF721FC0028F9D00B98007800285C
:1027C00087D106B070BC5DF814FB00B58BB0012159
:1027D0000846FEF7E4FA3148001D009031480190A8
:1027E000102002908001039000200490802005902A
:1027F00000200690079008904FF480500990002028
:102800000A9069462848FDF7ADFE00212648FDF7ED
:10281000D4FE012280212148FFF744FB0BB000BD0C
:1028200000B58BB001210846FEF7B9FA1C48001D1F
:1028300000901C480190102002908001039000201D
:1028400004908020059000200690079008904FF497
:102850008050099000200A90694613483C30FDF7EB
:1028600081FE002110483C30FDF7A7FE01228021A7
:102870000B48FFF717FB0020029069460A482830F2
:10288000FDF770FE012108482830FDF796FE012271
:1028900040210348FFF706FB0BB000BD00380140A4
:1028A00000440040D00000204400024030B589B010
:1028B00005460C46681E80B2ADF81C00601E80B252
:1028C000ADF818000020ADF81E00ADF81A00012187
:1028D0000220FEF77EFA06A9DD48FEF7A9FB60207C
:1028E000ADF808000120ADF80A003020ADF80E0068
:1028F0000020ADF8100002A9D548FEF7D6FB08214C
:10290000D348FFF721F802A9D148FEF75DFC082162
:10291000CF48FFF72FF80121CD48FEF7E5FE012251
:102920004121CB48FEF7FBFE1D208DF8040000205E
:102930008DF8050003208DF8060001208DF80700B2
:1029400001A8FDF704FD09B030BD30B589B00546DA
:102950000C46681E80B2ADF81C00601E80B2ADF857
:1029600018000020ADF81E00ADF81A000121042067
:10297000FEF72FFA06A9B748FEF75AFB6020ADF81C
:1029800008000120ADF80A004B20ADF80E00002031
:10299000ADF8100002A9AF48FEF787FB0821AD484B
:1029A000FEF7D2FF0121AB48FEF79EFE0122412136
:1029B000A848FEF7B4FE1E208DF8040000208DF814
:1029C000050004208DF8060001208DF8070001A8FD
:1029D000FDF7BDFC09B030BD10B50A214FF47A7087
:1029E000FFF764FF4FF4B4614FF47A70FFF7ADFF67
:1029F000FFF754FCFFF769FC4B20964934310880FF
:102A000010BD95480078412829D193484078312855
:102A100004D032280ED0332820D114E0DC208C4999
:102A20003431088030208A493C31088000208B49AD
:102A3000087013E03020864934310880DC20844956
:102A40003C3108800AE030208149343108808049D7
:102A50003C31088001208149087000BF00BF7E48DA
:102A600000210180817070477B480078422818D18E
:102A700079484078312804D0322807D033280FD144
:102A800009E0632073493431088009E0322071493C
:102A90003431088004E04B206E493431088000BF97
:102AA00000BF6D48002101808170704710B5044659
:102AB000302067493431088065493C3108804B201B
:102AC0006449343108806420FFF770FC302060498D
:102AD00034310880DC205E493C3108806420FFF7F7
:102AE00065FC30205A493431088059493C3108800E
:102AF00024B96B2057493431088003E02A20554916
:102B0000343108806420FFF751FCFA2050493431F9
:102B1000088030204E493C3108806420FFF746FC95
:102B2000DC204B4934310880302049493C31088051
:102B30004FF4FA70FFF73AFC10BD10B5044694B993
:102B40004B204449343108806420FFF72FFCDC20FF
:102B50003F493431088030203D493C3108806420B1
:102B6000FFF724FC0AE03020394934310880DC20AA
:102B700037493C3108806420FFF718FC10BD10B5C0
:102B800002213748FDF7F3FE012802D10020FFF7AC
:102B9000D4FF4FF480713248FDF7E9FE10B90120EF
:102BA000FFF7CBFF4FF400612D48FDF7E0FE98B929
:102BB00010212B48FDF7DBFE58B94B202549343155
:102BC0000880302022493431088021493C31088076
:102BD00002E00020FFF76AFF4FF480512048FDF724
:102BE000C6FE98B910211E48FDF7C1FE58B94B200A
:102BF000184934310880302015493431088014498F
:102C00003C31088002E00120FFF750FF10BD124860
:102C1000007844281AD110484078312802D0322850
:102C200013D103E001200F4908700EE000200D4988
:102C30000870302006493431088005493C3108804D
:102C40004B2004493431088000BF00BF70470000AA
:102C50000004004000080040D00000202A000020AE
:102C6000000801402900002010B5FFF780FAFFF7A7
:102C70009DFAFFF779FCFFF7CFFCFFF7B1FCFFF7F8
:102C8000CFFD10BD10B50446012C04D10121F3483D
:102C9000FDF787FE03E00121F048FDF784FE10BD3B
:102CA00010B50221ED48FDF77EFE4FF4FA70FFF7F4
:102CB0007DFB0221E948FDF774FE10BD2DE9F041CE
:102CC00006460C4615461F46E548B0F80004C10B01
:102CD000C903E348A0F800143246E2A1E348FFF735
:102CE000F1FC1CB915B90120BDE8F0813846FFF7A9
:102CF0005DFBDB49DEA000F069FEB4B1ADB1214659
:102D0000D74800F0EDFD08B1012000E0002040B9F7
:102D10002946D34800F0E4FD08B1012000E000207E
:102D200008B10120E0E70020DEE744B12146CC48AD
:102D300000F0D6FD08B10120D6E70020D4E72946EF
:102D4000C74800F0CDFD08B10120CDE70020CBE75A
:102D500010B50221C148FDF724FE4FF47A70FFF749
:102D600025FB01E0FFF79CFFC8230022C1A1C2A000
:102D7000FFF7A4FF0028F5D010BD10B5044624B11C
:102D8000012C0AD0022C18D10FE040F6C413BBA2CC
:102D9000B8A1BDA0FFF792FF10BD40F6C413B7A2C3
:102DA000B4A1BCA0FFF78AFFF6E740F6C413B3A2B4
:102DB000B0A1BBA0FFF782FFEEE70020ECE730B543
:102DC0009FB004460D462B462246B8A101A800F04C
:102DD0000DFE41F658330022A6A101A8FFF76EFFB1
:102DE0001FB030BD70B5A0B004460D4616462B4648
:102DF0002246B3A102A8009600F0F8FD4FF47A73C2
:102E000000229CA102A8FFF759FF20B070BD10B5A9
:102E100086B004460CB1012000E000200246AEA1BD
:102E200001A800F0E3FD4FF4FA73002291A101A87C
:102E3000FFF744FF06B010BDF0B5B9B006460F4627
:102E400014461D46642120A800F03FFD16B1012E56
:102E500010D107E03B46A4A2A4A120A8009400F052
:102E6000C5FD08E03B46A5A2A0A120A8009400F063
:102E7000BDFD00E000BF00BF052D06DA20AB2A46ED
:102E80009FA102A800F0B2FD04E020AAA1A102A81F
:102E900000F0ACFD4FF4FA73A2A276A102A8FFF7EE
:102EA0000DFF39B0F0BD70B5BCB004460D461646F6
:102EB000FCB12B4601229FA11EA800F097FD3246CF
:102EC000A1A1684600F092FD4FF4FA73002269A1B7
:102ED0001EA8FFF7F3FE50B14FF4FA73002265A16C
:102EE0006846FFF7EBFE10B101203CB070BD00203A
:102EF000FBE72B4600228FA11EA800F077FD4FF4C0
:102F0000FA7300225BA11EA8FFF7D8FEEDE710B50B
:102F10004FF4FA73002257A18FA0FFF7CFFE48B1FC
:102F20004FF4FA7390A291A191A0FFF7C7FE08B1E8
:102F3000012010BD0020FCE72DE9F04186B00746D6
:102F40000C4615461E464FF000082FB1224648A1F8
:102F50004648FFF7B7FB1CE0052E06DAAB1C3246ED
:102F600086A101A800F042FD04E0AA1C88A101A8E6
:102F700000F03CFD4FF47A73002289A101A8FFF70D
:102F80009DFE4FF47A73002286A12046FFF796FE3D
:102F90008046404606B0BDE8F08170B50446002585
:102FA0002F48B0F80004C10BC9032D48A0F8001445
:102FB000B0F8000420F400412948A0F8001400BF34
:102FC0002748B0F80004C00BFAD000212448B0F81C
:102FD0000004C0F30E00224A115434B162A110461D
:102FE00000F07EFC38B11E4D05E070A11C4800F0D9
:102FF00077FC00B11A4D284670BD1CB56DA000F0DD
:10300000E5FC70A11948FFF75DFB4FF47A70FFF7FC
:10301000CDF90020FFF7B1FE00BF6BA000906DA0BE
:103020000190DDE90001FFF7CAFE0028F5D000BFDE
:1030300005236CA26DA10020FFF7FEFE0028F7D04B
:103040006421074800F041FCFFF761FF05230022DF
:103050006AA10120FFF770FF1CBD000000080140BD
:10306000D000002025730D0A00000000004400403D
:10307000257300004F4B0000415400006E6F206329
:1030800068616E676500000041542B43574D4F4403
:10309000453D310041542B43574D4F44453D32008F
:1030A00041542B43574D4F44453D330041542B432E
:1030B000574A41503D222573222C222573220000BD
:1030C00041542B43575341503D222573222C222536
:1030D00073222C312C25730041542B4349504D55FC
:1030E000583D2564000000005443500022257322FF
:1030F0002C222573222C257300000000554450001B
:1031000041542B43495053544152543D25642C257E
:103110007300000041542B43495053544152543DD5
:1031200025730000414C5245415920434F4E4E45B6
:103130004354000041542B43495053455256455285
:103140003D25642C2573000041542B4349505354B2
:103150004F3D25730000000041542B4349504D4F13
:1031600044453D31000000003E0000000D0A000013
:1031700041542B43495053454E44000041542B4386
:10318000495053454E443D25642C25640000000001
:1031900041542B43495053454E443D2564000000A3
:1031A0003E20000053454E44204F4B002B495044D5
:1031B000000000000D0A57694669CAB5D1E90D0A39
:1031C000000000002B2B2B004E4554474541523642
:1031D000350000006B696E6477696E646F77363313
:1031E0003500000031323334000000003131342E1C
:1031F0003231352E3131312E383400007B22747952
:103200007065223A226C6F67696E222C22636C69AA
:10321000656E745F6E616D65223A226D6375222C56
:1032200022726F6F6D5F6964223A2231227D454EB2
:103230004400000008B501213C20FDF7BDFD102031
:103240008DF8030003208DF802004FF48070ADF874
:1032500000006946AB48FDF7F9FA4FF48071A948C0
:10326000FDF79FFB0820ADF800006946A648FDF772
:10327000EDFA2020ADF800006946A448FDF7E6FA13
:103280004FF44060ADF8000069469E48FDF7DEFA55
:103290002020ADF8000069469A48FDF7D7FA4FF4B0
:1032A0007F40ADF8000004208DF8030003208DF866
:1032B000020069469548FDF7C9FA0820944908605C
:1032C00091491031086008BD10B500F091F9FFF781
:1032D000B1FF10BD08B501210420FDF76DFD0120EF
:1032E000ADF8000004208DF8030003208DF80200E3
:1032F000694687481438FDF7A9FA08BD08B54FF4A8
:10330000C060FDF71FF806208DF8000000208DF842
:10331000010003208DF8020001208DF803006846AB
:10332000FDF715F808BD1CB500210846FDF7A2FB06
:103330000120009000208DF804000C208DF805007D
:1033400001208DF806006846FDF7A0F90120FDF781
:10335000ECF91CBD10B5FFF7BDFFFFF7E4FFFFF769
:10336000CDFF10BD38B500240020009069A000F00A
:103370002DFB8021122000F041FA20B96EA000F050
:1033800025FB002038BD0B220121684600F056FACB
:1033900020B96FA000F01AFB0020F3E79DF80010A1
:1033A0006FA000F013FB9DF80000212817D1002426
:1033B00010E0704A02EB440251786E4A12F8140091
:1033C00000F01CFA20B96CA000F000FB0020D9E747
:1033D000601C84B26C4800788442EADB01E0002083
:1033E000D0E76AA000F0F2FA0120CBE770B56F4891
:1033F0000078012802D16EA000F0E8FA00243EE037
:1034000070A17248FFF75EF9002633E000BF002587
:1034100020203C4948613D480830006800F47F4561
:10342000202008614861394808300068C0F307204F
:1034300005432020086100BF5C480078012817D1AF
:1034400000BF280A6149091D088000BF80215F482C
:10345000FEF7D2FD0028F9D0E8B25C49091D0880CA
:1034600000BF80215948FEF7C7FD0028F9D000BFF2
:10347000701C86B2B6F5A07FC8DB601C84B2F02C4D
:10348000BEDB4A480078012809D151A14F48FFF717
:1034900019F950A000F09AFA00205349087070BD45
:1034A00010B551480078432802D101203F490870E7
:1034B0004E480078022813D100BF400211494861EC
:1034C00020204861086140010861202048610861AE
:1034D00000BFFFF78BFF0020444908703349087094
:1034E00010BD10B5FFF7F0FE00BFFFF73BFF01284E
:1034F000FBD1FFF72FFF00202C4908703B490870D3
:1035000010BD00000010014000140140000C0140FB
:10351000140801406F76373732352052656769737A
:1035200074657220436F6E666967205374617274AC
:103530002E2E2E2E2E2E000073636362207772696A
:1035400074652064617461206572726F720000009E
:1035500072656164206964206661696C64000000C2
:1035600053656E736F72204944206973203078254B
:103570007800000030000020777269746520726561
:1035800067206661696C6400CA0000206F76373777
:10359000323520526567697374657220436F6E66B9
:1035A000696720537563636573730000280000200A
:1035B00053746172742073656E64696E672E0D0AB0
:1035C00000000000535441525400000000440040E9
:1035D000454E4400456E64206F6620656E64696EDA
:1035E000672E0D0A00000000D0000020CB00002054
:1035F00008B501211020FDF7DFFBC020ADF8000069
:1036000003208DF8020014208DF803006946AA48B3
:10361000FDF71CF908BD4FF4C87001E0411E88B2E7
:103620000028FBD1704710B58021A348FDF7B9F9F8
:103630004021A148FDF7B5F9FFF7EDFF80219E4835
:10364000FDF795F908B9002010BD80219A48FDF7D3
:10365000AAF9FFF7E0FF80219748FDF788F908B144
:103660000020F1E780219448FDF79DF9FFF7D3FF93
:103670000120E9E710B540218F48FDF794F9FFF7E5
:10368000CAFF80218C48FDF78EF9FFF7C4FF402167
:103690008948FDF786F9FFF7BEFF80218648FDF7D0
:1036A00080F9FFF7B8FF10BD10B540218248FDF743
:1036B0007AF9FFF7B0FF80217F48FDF774F9FFF733
:1036C000AAFF40217C48FDF76CF9FFF7A4FF4021D9
:1036D0007948FDF768F9FFF79EFF10BD10B540214E
:1036E0007548FDF760F9FFF796FF80217248FDF7F6
:1036F00058F9FFF790FF40216F48FDF752F9FFF7A7
:103700008AFF40216C48FDF74EF9FFF784FF10BD9A
:1037100010B540216848FDF746F9FFF77CFF80218E
:103720006548FDF73EF9FFF776FF40216248FDF757
:1037300038F9FFF770FF80215F48FDF718F928B1CD
:1037400040215D48FDF72FF9002010BD40215A4867
:10375000FDF729F90120F8E770B5044608251BE0BC
:1037600040215548FDF71FF9FFF755FF14F0800F72
:1037700004D080215048FDF714F903E080214E4821
:10378000FDF711F96006040EFFF745FF40214A4896
:10379000FDF707F9FFF73FFF2800A5F10101CDB2C2
:1037A000DED140214448FDF7FEF870BD70B5082514
:1037B000002480214048FDF7F4F814E06006040E70
:1037C00040213D48FDF7EFF8FFF725FF40213A483B
:1037D000FDF7E7F8FFF71FFF80213748FDF7C7F82F
:1037E00008B144F001042800A5F10101CDB2E5D1F2
:1037F00040213148FDF7D7F8204670BD70B504462A
:103800000D46FFF710FF08B9002070BD4220FFF7FA
:10381000A3FFFFF77DFF18B9FFF72CFF0020F4E7A7
:10382000E0B2FFF799FFFFF773FF2846FFF794FF19
:10383000FFF76EFFFFF71EFF0120E6E770B50546B4
:103840000C461646FFF7EFFE08B9002070BD422077
:10385000FFF782FFFFF75CFF18B9FFF70BFF0020AF
:10386000F4E73046FFF778FFFFF752FFFFF702FF5C
:10387000FFF7D9FE08B90020E8E74320FFF76CFF07
:10388000FFF746FF18B9FFF7F5FE0020DEE70CE072
:10389000FFF78CFF2870012C02D1FFF71FFF01E01A
:1038A000FFF702FF6D1C601E84B2002CF0D1FFF701
:1038B000E1FE0120CAE7000000100140D2B201E0A1
:1038C00000F8012B491EFBD270470022F6E710B525
:1038D00013460A4604461946FFF7F0FF204610BD7E
:1038E00030B505462A460B4612F8010B13F8014B7A
:1038F00008B1A042F8D01CB1002802D06D1CF1E73D
:10390000284630BD2DE9F05F0546002092469B46D3
:1039100088460646814640241BE0284641464746E5
:10392000224600F042F853465A46C01A914110D33D
:1039300011461846224600F029F82D1A67EB0108B7
:103940004F4622460120002100F020F817EB000925
:103950004E41201EA4F10104DFDC484631462A46D0
:103960004346BDE8F09F0000064C074D06E0E068C6
:1039700040F0010394E8070098471034AC42F6D3B6
:10398000FCF7DAFB003D0008203D0008202A04DB9C
:10399000203A00FA02F1002070479140C2F1200362
:1039A00020FA03F3194390407047202A04DB203AA1
:1039B00021FA02F00021704721FA02F3D040C2F14F
:1039C0002002914008431946704700000FB4054B90
:1039D00010B503A9044A029800F02CF810BC5DF859
:1039E00014FB0000A7250008CC0000200FB4084BF2
:1039F00010B504A902AA039800F01CF8044602A915
:103A0000002000F077F9204610BC5DF814FB0000A0
:103A1000F53C000802E008C8121F08C1002AFAD1CC
:103A200070477047002001E001C1121F002AFBD13E
:103A3000704700002DE9FF4F8DB09B460F460446AE
:103A4000002638E1252801D00F9959E00025641C93
:103A50009D49A84601222378203B02FA03F0084240
:103A600002D00543641CF6E720782E2817D114F8FD
:103A7000010F45F004052A280ED06FF02F022078A0
:103A8000A0F1300109290AD808EB880102EB4101B5
:103A900000EB0108641CF2E757F8048B641C2078E3
:103AA0006C280DD004DC4C2812D06A2811D104E017
:103AB00074280DD07A280CD10AE045F4001507E0EF
:103AC000617845F48015814202D1641C05F58015AA
:103AD000641C2278692A46D008DC002A70D0582A53
:103AE00069D0632A11D0642A08D13CE0702A69D0D9
:103AF000732A14D0752A5CD0782A5CD00F991046AE
:103B00005A46904706F10106D4E017F8040B8DF8E9
:103B1000000000208DF80100E946012003E057F87D
:103B2000049B4FF0FF3069074FF0000501D40AE015
:103B30006D1C45450DDA8542FADB19F805100029A0
:103B4000F6D106E06D1C8542FCDB19F80510002952
:103B5000F8D12E4404E019F8010B5A460F9990470A
:103B60006D1EF8D2A6E00A200021CDE90801C5F3B8
:103B7000025002280BD001CFC11700290EDA4FF0F6
:103B8000000CD0EB0C006CEB01012D2309E007F1D8
:103B9000070727F00707F7E80201EEE72B0504D532
:103BA0002B238DF82830012330E0EB072ED0202383
:103BB000F7E70A2000E010200021CDE9080109E024
:103BC0007DE0FFE71020002145F00405CDE9080164
:103BD0004FF00808C5F3025002281BD001CF002186
:103BE0004FF0000A2B0712D5702A19D0DDE908C35F
:103BF0008CF0100C5CEA030C09D150EA010306D0EA
:103C000030238DF828308DF8292002239A46582A2F
:103C100010D00AE0FF1D27F00707F7E80201DFE7F1
:103C200040228DF828204FF0010A28A20DF120092A
:103C30000B9209E02AA2F9E7DDE90823FFF762FE0B
:103C40000B9B9B5C09F8013D50EA0102F4D1ADEBFE
:103C5000090000F120000890680701D44FF0010826
:103C60000899884502DDA8EB010000E000208046AD
:103C7000002506E00AA85A46405D0F999047761C39
:103C80006D1C5545F6DB04E030205A460F999047ED
:103C9000761CB8F10001A8F10108F5DC05E019F87F
:103CA000010B5A460F999047761C0899481E0890B8
:103CB0000029F4DC641C207800287FF4C3AE11B026
:103CC0003046BDE8F08F0000092801003031323362
:103CD0003435363738396162636465660000000048
:103CE0003031323334353637383941424344454632
:103CF000000000000A68531C0B6010707047000041
:103D0000203D000800000020D0000000143A000808
:103D1000F03D0008D000002008080000243A000808
:103D200000A24A0400000000000000000102030499
:103D30000607080900000000010203040102030451
:103D40000607080902040608000000000000000041
:103D500011001246173F185019031A7832002950E3
:103D60002C782A00427F4D0963E064FF65206600DD
:103D7000670013F00D810FC5142122FF23012434A5
:103D8000253C26A12B006BAA13FF695D900A9101C7
:103D900092019301945F95539611971A983D995A01
:103DA0009A1E9B009C25A765A8659E81A6067E0C91
:103DB0007F16802A814E8261836F847B8586868E02
:103DC000879788A489AF8AC58BD78CE88D20A98076
:103DD000AA80ACFF3300229923034A004913470805
:103DE0004B144C1746050CD00EF54D00000000009A
:0400000508000131BD
:00000001FF
