:020000040800F2
:10000000D808002045010008F5230008F723000860
:10001000FB230008FF230008032400080000000061
:10002000000000000000000000000000072400089D
:1000300009240008000000000B2400080D2400081B
:100040005F0100085F0100085F0100085F01000810
:100050005F0100085F010008C52400085F01000877
:100060005F0100085F0100085F0100085F010008F0
:100070005F0100085F0100085F0100085F010008E0
:100080005F0100085F0100085F0100085F010008D0
:100090005F0100085F0100085F0100085F010008C0
:1000A0005F0100085F0100085F0100085F010008B0
:1000B0005F010008152500082B2500085F010008D6
:1000C0005F0100085F0100085F0100085F01000890
:1000D0005F01000899240008152400085F0100084A
:1000E0005F0100085F0100085F0100085F01000870
:1000F0005F0100085F0100085F0100085F01000860
:100100005F0100085F0100085F0100085F0100084F
:100110005F0100085F0100085F0100085F0100083F
:100120005F0100085F0100085F0100085F0100082F
:10013000DFF80CD003F0D2FD00480047ED200008A6
:10014000D80800200648804706480047FEE7FEE73B
:10015000FEE7FEE7FEE7FEE7FEE7FEE7FEE7FEE777
:1001600047020008310100080CB500200190009002
:100170006C48006840F480306A49086000BF6948F4
:10018000006800F4003000900198401C0190009835
:1001900018B90198B0F5A06FF1D16248006800F479
:1001A000003010B10120009001E000200090009884
:1001B000012843D15C48006840F010005A490860AB
:1001C0000846006820F0030008600846006840F018
:1001D0000200086053484068524948600846406839
:1001E00048600846406840F48060486008464068BF
:1001F00020F47C1048600846406840F4E8104860ED
:100200000846006840F08070086000BF45480068FC
:1002100000F000700028F9D04248406820F0030048
:10022000404948600846406840F00200486000BF0E
:100230003C48406800F00C000828F9D10CBD10B50E
:10024000FFF792FF10BD10B53648006840F001007E
:1002500034490860084640683449084031494860DC
:1002600008460068324908402E4908600846006880
:1002700020F4802008600846406820F4FE004860B2
:100280004FF41F008860FFF7DAFF4FF00060294944
:10029000086010BD10B5002100200022214B5B68D2
:1002A00003F00C0121B1042906D0082928D107E068
:1002B000214B224C236027E01F4B204C236023E07E
:1002C000184B5B6803F47010164B5B6803F48032C4
:1002D000022303EB904022B9194B4343174C236090
:1002E0000DE0104B5B6803F4003323B1144B434320
:1002F000124C236003E0104B4343104C236003E097
:100300000D4B0E4C236000BF00BF064B5B68C3F370
:1003100003130C4CE15C094B1B68CB40074C23607A
:1003200010BD000000100240002002400000FFF855
:10033000FFFFF6FE08ED00E000127A00000000204A
:1003400000093D000400002031490143314A116099
:10035000704770B5002100230F22C47804B32D4CE0
:10036000246804F4E064C4F5E064210AC1F10403E4
:10037000CA40447804FA03F1847814402143090107
:10038000254C0678A155047804F01F050124AC40E3
:1003900005786D11AD0005F1E025C5F8004109E0D3
:1003A000047804F01F050124AC401C4D067876113A
:1003B00045F8264070BD1A4A0A400243154B1B1FE0
:1003C0001A60704739B1134A121D12680243114B6B
:1003D0001B1D1A6006E00F4A121D126882430D4B66
:1003E0001B1D1A607047042808D14FF0E0210969ED
:1003F00041F004014FF0E022116107E04FF0E021ED
:10040000096921F004014FF0E022116170470000FA
:100410000000FA050CED00E000E400E080E100E0FF
:1004200080FFFF1F01684FF6FE721140016000213E
:10043000016041608160C1608D49884208D18C496A
:100440000839496841F00F01894A083A51608AE049
:1004500087491431884208D185490839496841F0F3
:10046000F001834A083A51607DE081492831884291
:1004700008D17F490839496841F470617C4A083ADB
:10048000516070E07A493C31884208D17849083996
:10049000496841F47041764A083A516063E0744912
:1004A0005031884208D172490839496841F47021B5
:1004B0006F4A083A516056E06D496431884208D16C
:1004C0006B490839496841F47001694A083A51603A
:1004D00049E067497831884208D165490839496857
:1004E00041F07061624A083A51603CE061498842DB
:1004F00006D1011F096841F00F01021F116032E0AF
:100500005C491431884208D15A49091F096841F0F1
:10051000F001584A121F116025E0564928318842DF
:1005200008D15449091F096841F47061514A121FEA
:10053000116018E04F493C31884208D14D49091FEC
:10054000096841F470414B4A121F11600BE04949A0
:100550005031884207D14749091F096841F4702189
:10056000444A121F1160704710B50022026847F616
:10057000F0739A430C6A8B6823430C6923434C69DC
:1005800023438C692343CC6923434C6A23438C6AFD
:1005900023431A430260CB6843600B6883604B6857
:1005A000C36010BD0021016041608160C1600161D4
:1005B00041618161C161016241628162704721B123
:1005C000026842F00102026004E002684FF6FE7326
:1005D0001A40026070471AB103680B43036002E0DF
:1005E00003688B4303607047416070470146486869
:1005F00080B2704701460020002201F080531BB1F9
:100600001C4B083B1A6802E0194B083B1A6802EAC7
:1006100001030BB1012000E00020704700F0805181
:1006200019B11449091F086002E0114908394860EE
:10063000704701460020002201F080531BB10D4B92
:10064000083B1A6802E00A4B083B1A6802EA0103F9
:100650000BB1012000E00020704700F0805119B17B
:100660000449091F086002E00149083948607047E1
:100670000800024008040240002044490860091DA7
:100680000860091D0860091D086041483F49143190
:100690000860704700213D498279002A3AD00A4615
:1006A000126803689A430B461A600A1D12680368B1
:1006B0009A430B1D1A60027911440A6803681A43B1
:1006C0000A60324A0832126803689A432F4B083393
:1006D0001A601A1D126803689A432C4B0C331A6077
:1006E0004279102A0ED11A1F126803681A43274B49
:1006F00008331A601A1D126803681A43234B0C331F
:100700001A600DE02149427911440A6803681A43CE
:100710000A6005E0027911440A6803689A430A6096
:1007200070470021016001710C214171002181712C
:1007300070471649103109680143144A103211609C
:10074000704701460020114A143212680A400AB16B
:10075000012000E0002070470C4914310860704708
:10076000014600200022094B1B6803EA0102074BE7
:1007700014331B680B4013B10AB1012000E00020C4
:1007800070470249143108607047000000040140BE
:10079000FFFF0F0010B50446CC48844208D1012168
:1007A000042000F02DFB0021042000F029FB46E08E
:1007B000C748844208D10121082000F021FB002114
:1007C000082000F01DFB3AE0C248844208D1012114
:1007D000102000F015FB0021102000F011FB2EE08E
:1007E000BD48844208D10121202000F009FB0021EE
:1007F000202000F005FB22E0B848844208D1012106
:10080000402000F0FDFA0021402000F0F9FA16E047
:10081000B348844208D10121802000F0F1FA002180
:10082000802000F0EDFA0AE0AE48844207D10121B1
:10083000801500F0E5FA0021A01500F0E1FA10BDE6
:1008400010B50121084600F0DBFA0021012000F07C
:10085000D7FA10BD2DE9F041024600250026002000
:1008600000230024002791F803C00CF00F0591F835
:1008700003C00CF0100CBCF1000F03D091F802C0C3
:100880004CEA050591F800C0BCF1000F31D01468A6
:1008900000202BE04FF0010C0CFA00F3B1F800C07F
:1008A0000CEA03069E4220D183004FF00F0C0CFA95
:1008B00003F7BC4305FA03FC4CEA040491F803C0B7
:1008C000BCF1280F06D14FF0010C0CFA00FCC2F865
:1008D00014C00AE091F803C0BCF1480F05D14FF0F5
:1008E000010C0CFA00FCC2F810C0401C0828D1D33F
:1008F0001460B1F800C0BCF1FF0F34DD5468002073
:100900002EE000F1080C4FF0010808FA0CF3B1F8E2
:1009100000C00CEA03069E4221D183004FF00F0C69
:100920000CFA03F7BC4305FA03FC4CEA040491F803
:1009300003C0BCF1280F05D100F1080C08FA0CF82F
:10094000C2F8148091F803C0BCF1480F07D100F140
:10095000080C4FF0010808FA0CF8C2F81080401C8F
:100960000828CED35460BDE8F0814FF6FF710180B6
:10097000022181700421C1707047024600209368F3
:100980000B400BB1012000E0002070470146886851
:1009900080B2704702460020D3680B400BB10120A3
:1009A00000E0002070470146C86880B270470161CE
:1009B0007047416170470AB1016100E041617047D1
:1009C000C16070474FF480320A4382618161826165
:1009D00082698269704702460020434B18684FF6CF
:1009E0008073184040EA021008433F4B186070477C
:1009F0003E49C8617047F0B50A4600230024002133
:100A0000002500F00046B6F1004F02D1364EF169E4
:100A100001E0354E7168C0F3034583B200F440161F
:100A2000B6F5401F08D121F070612F4E766826F090
:100A300070662D4F7E6012E000F48016B6F5801FC0
:100A400006D1032606FA05F4A14341F0706106E0E1
:100A5000460D360103FA06F6B14341F0706122B14A
:100A6000460D360103FA06F6314300F00046B6F1B2
:100A7000004F02D11C4EF16101E01B4E7160F0BDD0
:100A800030B500228B071C0F0F2303FA04F2164B1C
:100A900008338C1053F824309343134C08348D10D2
:100AA00044F8253023468C1053F824308C07240F4B
:100AB00000FA04F423430C4C08348D1044F825301C
:100AC00030BD0A49DC310860704700000008014071
:100AD000000C0140001001400014014000180140CA
:100AE000001C0140002001400000014000002042A5
:100AF000DF48006840F00100DD49086008464068B2
:100B0000DC490840DA49486008460068DA4908408C
:100B1000D74908600846006820F48020086008462D
:100B2000406820F4FE0048604FF41F008860704762
:100B3000CF49096821F48031CD4A11601146096816
:100B400021F480211160B0F5803F03D0B0F5802FF3
:100B50000ED106E0C649096841F48031C44A1160EB
:100B600007E0C349096841F4A021C14A116000E0CF
:100B700000BF00BF704710B50146002200230020CF
:100B80004A11012A02D1BA4C236806E0022A02D196
:100B9000B74C236A01E0B64C636A01F01F020124DE
:100BA00094401C400CB1012000E0002010BD38B57D
:100BB000002000900024002500BF3120FFF7DBFF5C
:100BC00005460098401C00900098B0F5A06F01D039
:100BD000002DF2D03120FFF7CEFF08B1012400E054
:100BE0000024204638BD01460020A14A106820F0AC
:100BF000F80040EAC10010607047A04908607047E3
:100C0000024600209A4B586820F47C1042EA010307
:100C10001843974B586070479849086670470146DB
:100C20000020934A506820F003000843506070474A
:100C30008F48406800F00C007047014600208C4A45
:100C4000506820F0F00008435060704701460020D3
:100C5000874A506820F4E0600843506070470146BE
:100C60000020834A506820F4605040EAC100506080
:100C7000704729B17E4A527A02437D4B5A7204E092
:100C80007B4A527A82437A4B5A7270477B49D831F9
:100C90000860704701460020754A506820F44040C3
:100CA0000843506070470021714A20321170704A29
:100CB00082F82010012802D004280AD104E0012182
:100CC0006B4A2032117005E00521694A203211700B
:100CD00000E000BF00BF7047694908607047644981
:100CE000096A0143624A11627047654944390860E4
:100CF000704730B500210022002400235C4D6D6850
:100D000005F00C0121B1042905D0082923D105E003
:100D10005C4D056022E05B4D05601FE0544D6D6841
:100D200005F47012524D6D6805F48034022505EB10
:100D300092421CB9544D554305600BE04C4D6D6813
:100D400005F400351DB1504D5543056002E04D4D91
:100D50005543056002E04B4D056000BF00BF444DA8
:100D60006D6805F0F0010909484D6B5C0568DD40D0
:100D700045603F4D6D6805F4E061090A434D6B5CC9
:100D80004568DD4085603A4D6D6805F46051C90ADB
:100D90003E4D6B5C4568DD40C560354D6D6805F4C2
:100DA0004041890B3A4D6B5CC568B5FBF3F50561B5
:100DB00030BD29B12E4A526902432D4B5A6104E0DD
:100DC0002B4A526982432A4B5A61704729B1284AFB
:100DD00092690243264B9A6104E0254A9269824354
:100DE000234B9A61704729B1214AD2690243204BB3
:100DF000DA6104E01E4AD26982431D4BDA61704712
:100E000029B11B4AD2680243194BDA6004E0184A40
:100E1000D2688243164BDA60704729B1144A1269CE
:100E20000243134B1A6104E0114A12698243104BCA
:100E30001A61704712494039086070470F49C86409
:100E400070470B49C87170470948406A40F080708C
:100E500007494862704701460020054A92680A40E7
:100E60000AB1012000E000207047014988727047F4
:100E7000001002400000FFF8FFFFF6FE00004242B3
:100E80008004424200127A0000093D001400002054
:100E90002400002010B50446FE48844208D10121F8
:100EA000C014FFF7ADFF0021E014FFF7A9FFC4E075
:100EB000B4F1804F08D101210846FFF7AEFF0021B1
:100EC0000120FFF7AAFFB8E0F348844208D10121CE
:100ED0000220FFF7A2FF00210220FFF79EFFACE0F7
:100EE000EE48844208D101210420FFF796FF00213B
:100EF0000420FFF792FFA0E0E948844208D10121D5
:100F00000820FFF78AFF00210820FFF786FF94E002
:100F1000E448844208D101211020FFF77EFF002120
:100F20001020FFF77AFF88E0DF48844208D10121D2
:100F30002020FFF772FF00212020FFF76EFF7CE0EA
:100F4000DA48844208D101214014FFF759FF0021FB
:100F50006014FFF755FF70E0D548844209D10121A4
:100F6000C804FFF74DFF00214FF40020FFF748FFB2
:100F700063E0D048844209D101210805FFF740FF12
:100F800000214FF48010FFF73BFF56E0CA4884422F
:100F900009D101214805FFF733FF00214FF400106C
:100FA000FFF72EFF49E0C548844208D101214020C7
:100FB000FFF733FF00214020FFF72FFF3DE0C0483F
:100FC000844208D101218020FFF727FF00218020E3
:100FD000FFF723FF31E0BB48844208D1012180158F
:100FE000FFF71BFF0021A015FFF717FF25E0B6480C
:100FF000844209D101210804FFF702FF00214FF4C8
:101000008030FFF7FDFE18E0B048844209D101218D
:101010004804FFF7F5FE00214FF40030FFF7F0FE23
:101020000BE0AB48844208D101218804FFF7E8FEB9
:1010300000214FF48020FFF7E3FE10BD002202885C
:10104000944B98420ED0994B98420BD0B0F1804F00
:1010500008D0914B984205D0904B984202D0904BCB
:10106000984204D14FF68F731A404B881A438D4B28
:10107000984207D08C4B984204D04FF6FF431A4059
:10108000CB881A4302808B8883850B880385814B2C
:1010900098420BD0854B984208D08B4B984205D094
:1010A0008A4B984202D08A4B984201D10B7A038630
:1010B00001238382704770B5002400220023058C31
:1010C0004FF6FE7635400584028C8388048B4FF6FC
:1010D0008F752C40B51E2C400D882C43751E2A4060
:1010E0000D892A434D882A436A4DA8420BD06F4D83
:1010F000A84208D0744DA84205D0744DA84202D031
:10110000734DA84213D14FF6F7752A404D892A43F3
:101110004FF6FB752A408D882A434FF6FF652B401A
:101120004FF6FF552B408D892B43CD892B43838070
:101130000483CD888586028470BD70B500240022AA
:101140000023058C4FF6EF7635400584028C8388AA
:10115000048B48F6FF752C404FF6FF452C400D8858
:101160004FF6FF7606EA05252C434FF6DF752A4039
:101170000D8906EA05152A434D8806EA05152A4316
:10118000444DA84202D0494DA8421DD14FF67F756B
:101190002A404D894FF6FF7606EA05152A434FF699
:1011A000BF752A408D8806EA05152A434FF6FF359C
:1011B0002B404FF2FF752B408D8906EA85052B43A6
:1011C000CD8906EA85052B4383800483CD88058776
:1011D000028470BD70B5002400220023058C4FF6F8
:1011E000FF6635400584028C8388848B4FF68F75AB
:1011F0002C404FF6FC752C400D882C434FF6FF55C4
:101200002A400D894FF6FF7606EA05252A434D88C8
:1012100006EA05252A431F4DA84202D0234DA842C5
:101220001DD14FF2FF752A404D894FF6FF7606EA31
:1012300005252A434FF6FF352A408D8806EA052505
:101240002A434EF6FF752B404DF6FF752B408D89D6
:1012500006EA05152B43CD8906EA05152B43838045
:101260008483CD888587028470BD70B500220023F9
:101270000024058C4EF6FF7635400584038C848867
:10128000828B48F6FF752A404FF6FF452A400D88AD
:1012900020E00000002C0140000400400008004055
:1012A000000C0040001000400014004000340140D9
:1012B000004C014000500140005401400018004023
:1012C000001C00400020004000400140004401405C
:1012D000004801404FF6FF7606EA05252A434DF601
:1012E000FF752B400D8906EA05352B434D8806EA2C
:1012F00005352B43FA4DA84202D0FA4DA84208D139
:101300004BF6FF752C408D894FF6FF7606EA851562
:101310002C4384808283CD88A0F84050038470BD24
:10132000828B4FF2FF331A408283828B4FF6FF731A
:1013300003EA01231A4382837047F0B50C46154631
:10134000002200210026078C4EF6FF7C07EA0C07DE
:101350000784828B018C4FF6FF7707EA043640F64C
:10136000FF473A404FF6FF7707EA05273A434FF623
:10137000FF7707EA03373A43D94FB8420ED0D94F27
:10138000B8420BD0B0F1804F08D0D74FB84205D04B
:10139000D64FB84202D0D64FB84206D14DF6FF77AD
:1013A000394046F48057394305E047F6FF57394046
:1013B00044F48057394382830184F0BD828B4FF619
:1013C000F3731A408283828B0A4382837047F0B59D
:1013D0000C461546002200210026078C4FF6FF6CB4
:1013E00007EA0C070784828B018C4FF6FF7707EA28
:1013F00004264FF60C773A404FF6FF7707EA0317BB
:101400002F433A43B64FB8420ED0B64FB8420BD036
:10141000B0F1804F08D0B44FB84205D0B34FB842B6
:1014200002D0B34FB84206D14FF6FF57394046F4C9
:101430008077394305E04FF2FF57394044F4807715
:10144000394382830184F0BD028B4FF2FF331A408F
:101450000283028B4FF6FF7303EA01231A430283D0
:101460007047F0B50C461546002200210026078C77
:101470004FF6EF7C07EA0C070784028B018C4FF6CE
:10148000FF7707EA041640F6FF473A404FF6FF772A
:1014900007EA03373A434FF6FF7707EA05273A434F
:1014A0008F4FB8420ED08F4FB8420BD0B0F1804F63
:1014B00008D08D4FB84205D08C4FB84202D08C4F27
:1014C000B84206D14FF6DF77394046F0100739436E
:1014D00005E04FF65F77394044F010073943028347
:1014E0000184F0BD028B4FF6F3731A400283028B26
:1014F0000A4302837047F0B50C46154600220021CE
:10150000068C4FF6FE773E400684028B018C4FF628
:101510000C7632407E1C06EA03162E433243704E90
:10152000B0420ED06F4EB0420BD0B0F1804F08D019
:101530006D4EB04205D06D4EB04202D06C4EB042FE
:1015400006D14FF6FD76314044F00106314305E007
:101550004FF6F576314044F00106314302830184B1
:10156000F0BD70B505460C465D4885420ED05D481D
:1015700085420BD0B5F1804F08D05B48854205D03D
:101580005A48854202D05A48854200D100E000BF47
:10159000208850B92389A28861882846FFF7ABFFCD
:1015A000E1882846FFF79EFF25E0208804280AD11D
:1015B0002389A28861882846FFF753FFE1882846DF
:1015C000FFF742FF17E0208808280AD12389A28864
:1015D00061882846FFF7FBFEE1882846FFF7EEFE0C
:1015E00009E02389A28861882846FFF7A6FEE188E2
:1015F0002846FFF795FE70BD2DE9F04105460C46E3
:1016000000260127608808B9022600E00026A0888D
:10161000012801D1022700E001272088A0B92389F1
:10162000A28861882846FFF766FFE1882846FFF711
:1016300059FF23893A4631462846FFF712FFE188D1
:101640002846FFF701FF13E02389A2886188284616
:10165000FFF707FFE1882846FFF7F6FE23893A46A1
:1016600031462846FFF747FFE1882846FFF73AFF53
:10167000BDE8F0810A884B881A438B881A43CB88CF
:101680001A430B891A434B891A438B891A43A0F8D2
:10169000442070474FF6FF71818000210180C18096
:1016A0004180017270470021018041808180C180AA
:1016B000018141818181C181704700210180418088
:1016C000012181800021C1800181704700210180BA
:1016D00041808180C180018141818181704700000A
:1016E000002C01400034014000040040000800408C
:1016F000000C004021B1028842F00102028004E0A7
:1017000002884FF6FE731A400280704731B1B0F87C
:10171000442042F40042A0F8442005E0B0F8442000
:10172000C2F30E02A0F8442070471AB183890B431C
:10173000838102E083898B43838170478182704774
:1017400041EA0203A0F8483070471AB183890B437D
:10175000838102E083898B438381704701894FF63F
:10176000F8721140018170470A46002101894FF645
:101770008F73194011430181704730B504460D46FF
:1017800029462046FFF7F0FF208940F0070020811E
:1017900030BD2DE9F04104460D4616461F46602D2A
:1017A00006D13B46012231462046FFF75AFE05E0AE
:1017B0003B46012231462046FFF79DFE2946204642
:1017C000FFF7D2FF208940F007002081BDE8F081BB
:1017D00030B50C4600210189C9B24FF6FF7505EA04
:1017E0000325154325432943018130BD2DE9F041EF
:1017F00005460E4617469846002443463A4631466B
:101800002846FFF7E5FF2C894FF6F870044044F0B6
:1018100007044FF68F70044044F070042C81BDE83B
:10182000F081F0B504460D4616461F463B4632464B
:1018300029462046FFF7CCFF208940F480402081D4
:10184000F0BD0185828270470A46002101884FF66B
:101850008F731940114301807047F0B50C4615464F
:101860001E460021002200230189028B038C4FF6C3
:10187000F877394021434FF6FC473A4040F20117D0
:101880003A434FF6DD773B404FF6FF7707EA0617FE
:101890002F433B43018102830384F0BD0A460021AC
:1018A000018B4FF68F7319401143018370470A462D
:1018B0000021018B48F6FF7319404FF6FF7303EACE
:1018C00002231943018370470A460021818B4FF69A
:1018D0008F7319401143818370470A460021818B21
:1018E00048F6FF7319404FF6FF7303EA02231943CA
:1018F0008183704721B1028842F08002028004E0B7
:1019000002884FF67F731A400280704721B18288A7
:1019100042F00402828004E082884FF6FB731A4092
:101920008280704721B1828842F00802828004E000
:1019300082884FF6F7731A408280704721B18288FF
:1019400042F00102828004E082884FF6FE731A4062
:10195000828070470A460021018B4FF6F7731940C9
:101960001143018370470A460021018B4FF2FF7338
:1019700019404FF6FF7303EA0223194301837047AE
:101980000A460021818B4FF6F7731940114381837A
:1019900070470A460021818B4FF2FF7319404FF6C2
:1019A000FF7303EA02231943818370470A4600212B
:1019B000018B4FF6FB7319401143018370470A46B0
:1019C0000021018B4FF6FF3319404FF6FF7303EAF6
:1019D00002231943018370470A460021818B4FF689
:1019E000FB7319401143818370470A460021818BA4
:1019F0004FF6FF3319404FF6FF7303EA02231943F2
:101A0000818370470A460021018B4FF67F7319408E
:101A10001143018370470A460021018BC1F30E0177
:101A20004FF6FF7303EA02231943018370470A4606
:101A30000021818B4FF67F731940114381837047DA
:101A40000A460021818BC1F30E014FF6FF7303EAB2
:101A500002231943818370470A460021018C4FF607
:101A6000FD7319401143018470470A460021018C1F
:101A70004FF6F77319401143018470470A4600215D
:101A8000018C4FF6DF7319404FF6FF7303EA021320
:101A90001943018470470A460021018C4FF67F7379
:101AA00019404FF6FF7303EA02131943018470478C
:101AB0000A460021018C4FF6FF5319404FF6FF7381
:101AC00003EA02231943018470470A460021018C6E
:101AD0004FF2FF7319404FF6FF7303EA02231943D5
:101AE000018470470A460021018C4DF6FF731940AE
:101AF0004FF6FF7303EA023319430184704730B590
:101B0000002301248C40A3B2048C9C430484048CE5
:101B100002FA01F5ADB22C43048430BD30B5002388
:101B200004248C40A3B2048C9C430484048C02FAE9
:101B300001F5ADB22C43048430BD70B503460020DE
:101B400000241846183001258D40ACB21D8CA543E9
:101B50001D8409B1082909D100EB6100056825F051
:101B6000700505600568154305600EE00D1FC5F39F
:101B70004E052844056825F4E045056005684FF6E4
:101B8000FF7606EA02263543056070BD21B1028862
:101B900042F00202028004E002884FF6FD731A4010
:101BA0000280704721B1028842F00402028004E002
:101BB00002884FF6FB731A400280704721B1828879
:101BC00042F08002828004E082884FF67F731A40E0
:101BD0008280704702884FF6F7731A4002800288AD
:101BE0000A430280704782884FF68F731A408280C2
:101BF00082880A438280704702894FF6F8731A4040
:101C0000028102890A430281704702894FF67F737D
:101C10001A40028102890A43028170478184704719
:101C2000818570478186704701877047818770473B
:101C3000A0F84010704702884FF6FF431A40028018
:101C400002880A43028070470146888E7047014629
:101C5000088F70470146888F70470146B1F84000F1
:101C600070470146888C70470146088D70470246D0
:101C70000020138A0B400BB1012000E000207047C8
:101C8000CA430282704730B5024600200023002478
:101C9000158A05EA0103958905EA010413B10CB11F
:101CA000012000E0002030BDCA43028270470000DE
:101CB00010B50446FB48844209D101218803FFF78F
:101CC0009FF800214FF48040FFF79AF832E0F64881
:101CD000844209D101214804FFF79FF800214FF405
:101CE0000030FFF79AF825E0F048844209D101213D
:101CF0008804FFF792F800214FF48020FFF78DF859
:101D000018E0EB48844209D10121C804FFF785F8A7
:101D100000214FF40020FFF780F80BE0E5488442F3
:101D200008D101210805FFF778F800214FF4801051
:101D3000FFF773F810BD2DE9F04786B005460E4653
:101D40000024A24600BFA1460027B08900B100BF11
:101D50002F462C8A4CF6FF700440F08804432C82F6
:101D6000AC894EF6F3100440B0883189084371897C
:101D700008430443AC81AC8A4FF6FF400440B0896D
:101D80000443AC8201A8FEF7B4FFC648874202D1E3
:101D9000DDF810A001E0DDF80CA0A88900F40040F7
:101DA00040B10AEBCA0000EB0A1031684900B0FBF1
:101DB000F1F807E00AEBCA0000EB0A10316889006D
:101DC000B0FBF1F86420B8FBF0F0040120096421B5
:101DD00001FB1089A88900F4004040B1322000EBDB
:101DE000C900B0FBF1F000F00700044308E0322026
:101DF00000EB09106421B0FBF1F000F00F00044388
:101E00002C8106B0BDE8F0874FF416510160002127
:101E10008180C18001810C21418100218181704735
:101E200010B502460020108A4FF2FF0318400B88BD
:101E30004C8823438C882343CC8823431843108247
:101E400010BD0021018041808180C180704721B197
:101E5000828942F40052828104E082894DF6FF7348
:101E60001A4082817047F0B5034600240026002501
:101E7000002040F66A17B94200D100BF1846C1F3EE
:101E8000421401F01F06012707FA06F5012C01D1C3
:101E90000C3004E0022C01D1103000E014301AB1F3
:101EA00007682F43076002E00768AF430760F0BD93
:101EB0001AB1838A0B43838202E0838A8B43838235
:101EC0007047028A4FF6F0731A400282028A0A4370
:101ED0000282704782894FF2FF731A4082818289A1
:101EE0000A438281704721B1828942F002028281D5
:101EF00004E082894FF6FD731A4082817047028A9E
:101F00004FF6DF731A400282028A0A430282704748
:101F100021B1028A42F48042028204E0028A4BF636
:101F2000FF731A4002827047C1F308028280704733
:101F300001468888C0F308007047818941F001019B
:101F400081817047028BD2B20283028B42EA012266
:101F500002837047028B02F47F420283028B0A43A2
:101F60000283704721B1828A42F02002828204E01B
:101F7000828A4FF6DF731A408282704721B1828ACB
:101F800042F01002828204E0828A4FF6EF731A4018
:101F90008282704721B1828A42F00802828204E084
:101FA000828A4FF6F7731A408282704721B1828984
:101FB00042F40042828103E08289C2F30E028281F0
:101FC000704721B1828A42F40062828204E0828AF0
:101FD0004FF2FF731A4082827047828A4FF6FB737A
:101FE0001A408282828A0A438282704721B1828AA1
:101FF00042F00202828204E0828A4FF6FD731A40A8
:102000008282704702460020B1F5007F00D100BFF8
:1020100013880B400BB1012000E00020704701F451
:102020000072B2F5007F00D100BFCA430280704742
:1020300070B50246002400230025002040F66A16F1
:10204000B14200D100BFC1F3421501F01F030126C8
:1020500006FA03F3012D02D19689334006E0022DE2
:1020600002D1168A334001E0968A33400C120126D1
:1020700006FA04F41688344013B10CB1012000E0D4
:10208000002070BD10B50022002340F66A14A14262
:1020900000D100BF0A1201249440A3B2DC430480A3
:1020A00010BD0000003801400044004000480040DE
:1020B000004C00400050004010B51C4800784128FA
:1020C00006D0422807D0432808D044280CD108E085
:1020D00000F0ADFC08E000F0D3FC05E001F086F96B
:1020E00002E000F03AFD00BF00BF10BD00F028F98B
:1020F00000F062FD01F09BF900F088FC00F003F9AC
:1021000000F023FF01200A490870002009490870E7
:102110000BE04FF4FA7000F049F9FFF7CDFF0448E7
:102120000078012801D100F0CCFCF2E7D0000020BB
:10213000290000202A00002008B501210420FEF714
:1021400045FE0320ADF8000010208DF803000320A9
:102150008DF8020069467848FEF77CFB012176483D
:10216000FEF727FC02217448FEF721FC08BD08B5E4
:10217000012144F20400FEF729FE4FF40070ADF88F
:10218000000018208DF8030003208DF80200694636
:102190006948FEF75FFB04208DF803000002ADF8EC
:1021A000000069466448FEF755FB08BD08B50121EB
:1021B0000420FEF70BFE01214804FEF714FE042064
:1021C000ADF8000018208DF8030003208DF8020000
:1021D00069465948FEF73EFB0820ADF80000042090
:1021E0008DF8030069465448FEF734FB08BD08B576
:1021F000012141F20400FEF7E9FD1020ADF80000D6
:102200008DF8030003208DF8020069464A48FEF766
:1022100021FB2020ADF8000018208DF8030069464E
:102220004548FEF717FB8020ADF80000694642489C
:10223000FEF710FB4020ADF8000069463E48FEF76F
:1022400009FB08BD08B5012141F20400FEF7BEFDFF
:102250000420ADF8000010208DF8030003208DF855
:10226000020069463548FEF7F5FA0820ADF800008F
:1022700018208DF8030069463048FEF7EBFA10206D
:10228000ADF8000069462D48FEF7E4FA2020ADF8CD
:10229000000069462948FEF7DDFA08BD08B50121AE
:1022A0000420FEF7A0FD01210820FEF78FFD40204D
:1022B000ADF8000018208DF8030003208DF802000F
:1022C00069461E48FEF7C6FA08BD08B5012102207E
:1022D000FEF789FD01210C20FEF778FD4020ADF8C6
:1022E000000018208DF8030003208DF802006946D5
:1022F0001148FEF7AFFA0120ADF8000069460F481B
:10230000FEF7A8FA08BD08B501210420FEF75EFD1E
:1023100041F60210ADF8000004208DF80300032000
:102320008DF8020069460448FEF794FA69460248AF
:10233000FEF790FA08BD000000080140000C0140C3
:1023400030B5284800684FF47A72B0FBF2F1B1F171
:10235000807F01D301201DE021F07F40401E4FF01F
:10236000E022506150170F22002807DA13071D0ED4
:102370001D4B00F00F04241F1D5503E013071C0E16
:102380001A4B1C5400BF00204FF0E0229061072040
:102390001061002008B100BFFEE74FF0E0200069A7
:1023A00020F001004FF0E021086130BD01B5104977
:1023B000009808604FF0E020006940F001004FF005
:1023C000E021086100BF0A4800680028FBD108BD71
:1023D0000748006820B106480068401E04490860AC
:1023E000704700000000002018ED00E000E400E06D
:1023F0002C000020704700BFFEE700BFFEE700BFD3
:10240000FEE700BFFEE770477047704710B5FFF763
:10241000DFFF10BD10B54FF458714948FFF708FEB3
:10242000012807D14648001D0088C4B2214644480F
:10243000FFF77AFD40F224414148FFF7F9FD0128FA
:1024400029D100213F48FEF7BAF84FF40010FEF7FB
:10245000E5F83C486C38006FC0F580603A49B1F847
:10246000001460F30E013848A0F800140021B0F801
:102470000004C0F30E00344A11544FF48060314917
:102480006C3908671046886701212E48FEF797F8D7
:102490002B48FFF74DFD10BD10B540F225512B48DC
:1024A000FFF7C6FD01280CD140F225512748FFF760
:1024B000E9FD2648FFF73CFDC4B2214624A001F007
:1024C0002FFC10BD10B50120FEF74AF908B32148D2
:1024D000007880B920202049086008201F49086042
:1024E00001201C49087008201C49086020201A4956
:1024F000091F08600AE017480078012806D1082063
:102500001649091D08600220124908700120FEF7D3
:1025100038F910BD10B501211148FFF7B4FB18B10F
:1025200001210F48FFF7C0FB10BD10B501210D4878
:10253000FFF7A9FB18B101210A48FFF7B5FB10BD51
:10254000004400406C000240D000002000380140F0
:1025500025630000CB000020140C01401014014042
:1025600000040040000800401FB54FF4E130009027
:102570000020ADF80400ADF80600ADF80800ADF895
:102580000C000C20ADF80A006946C448FFF7D3FBE5
:10259000012240F22551C148FFF765FC0121BF48E7
:1025A000FFF755FC1FBD70B504460D46E1B2BB48B0
:1025B000FFF7BAFC00BF8021B848FFF723FD0028D1
:1025C000F9D0204670BD10B5044600BF2021B348A5
:1025D000FFF718FD0028F9D0B048FFF7A9FC10BD9F
:1025E00008B54FF4A060FDF7AFFE26208DF800007F
:1025F00001208DF801008DF802008DF80300684677
:10260000FDF7A7FE25208DF8000002208DF80100BF
:102610006846FDF79EFE08BD1FB54FF4E1300090FF
:102620000020ADF80400ADF80600ADF80800ADF8E4
:102630000C000C20ADF80A0069469948FFF77BFBB7
:10264000012240F224419648FFF70DFC01224FF48D
:1026500058719348FFF707FC01219148FFF7F7FBFA
:102660001FBDF0B503460D461646002729460A2E23
:1026700003D0002008702846F0BD33B9302001F89F
:10268000010B002008702846F6E7002B03DA2D2006
:1026900001F8010B5B4242F210720DE093FBF2F481
:1026A00004B937B104F1300001F8010B04FB123317
:1026B00001270A2092FBF0F2002AEFDC00200870CC
:1026C0002846D9E70FB470B586B006460CA801902D
:1026D00073E00B9800785C281CD10B98401C0B9081
:1026E00000786E2809D072280FD10D213046FFF7EF
:1026F0001BFC0B98401C0B900BE00A213046FFF7A7
:1027000013FC0B98401C0B9003E00B98401C0B90A3
:1027100000BF4BE00B980078252840D10B98401C57
:102720000B900078642818D0732833D1019810C812
:1027300001900BE021783046FFF7F6FB00BF8021C7
:102740003046FFF75FFC0028F9D0641C2078002891
:10275000F0D10B98401C0B9020E0019820C801900C
:102760000A2202A92846FFF77CFF02AC0BE0217881
:102770003046FFF7D9FB00BF80213046FFF742FC0F
:102780000028F9D0641C20780028F0D10B98401C58
:102790000B9003E00B98401C0B9000BF06E00B98D9
:1027A00010F8011B0B903046FFF7BEFB00BF8021E5
:1027B0003046FFF727FC0028F9D00B980078002856
:1027C00087D106B070BC5DF814FB00B58BB0012159
:1027D0000846FEF7EEFA3148001D0090314801909E
:1027E000102002908001039000200490802005902A
:1027F00000200690079008904FF480500990002028
:102800000A9069462848FDF7AFFE00212648FDF7EB
:10281000D6FE012280212148FFF74AFB0BB000BD04
:1028200000B58BB001210846FEF7C3FA1C48001D15
:1028300000901C480190102002908001039000201D
:1028400004908020059000200690079008904FF497
:102850008050099000200A90694613483C30FDF7EB
:1028600083FE002110483C30FDF7A9FE01228021A3
:102870000B48FFF71DFB0020029069460A482830EC
:10288000FDF772FE012108482830FDF798FE01226D
:1028900040210348FFF70CFB0BB000BD003801409E
:1028A00000440040D0000020440002407FB50546AF
:1028B0000C46681E80B2ADF80800601E80B2ADF80C
:1028C00004000020ADF80A00ADF806000121022046
:1028D000FEF789FA01A9AF48FEF7B0FB01224121BA
:1028E000AC48FEF722FF1D208DF8000000208DF877
:1028F000010003208DF8020001208DF803006846D6
:10290000FDF727FD7FBD7FB505460C46681E80B2EA
:10291000ADF80800601E80B2ADF804000020ADF8EC
:102920000A00ADF8060001210420FEF75CFA01A9B7
:102930009948FEF783FB012241219748FEF7F5FEF7
:102940001E208DF8000000208DF8010004208DF875
:10295000020001208DF803006846FDF7FAFC7FBDF8
:102960007FB505460C466020ADF800000120ADF8AB
:102970000200ADF806500020ADF808006946854811
:10298000FEF799FB08218348FEF7E4FFADF8064007
:1029900069468048FEF71EFC08217E48FEF7F0FFDE
:1029A00001217C48FEF7A6FE7FBD2DE9FF5F824630
:1029B000504601F066F88046784A794B00F0EFFF08
:1029C00006460022774B00F043FF044601F083F8EF
:1029D00083466020ADF800000120ADF802005846A3
:1029E00001F060F880B2ADF806000020ADF80800F4
:1029F00069466948FEF75FFB08216748FEF7AAFFB2
:102A000001216548FEF776FEBDE8FF9F10B50A215B
:102A10004FF47A70FFF74AFF4FF4B4614FF47A70C5
:102A2000FFF771FFFFF73AFCFFF74FFC10BD10B541
:102A30005D48007841281ED15B484078312804D099
:102A400032280AD0332815D10CE03021C820FFF7F6
:102A500087FF0020554908700CE0C8213020FFF79F
:102A60007FFF07E030210846FFF77AFF01204F493A
:102A7000087000BF00BF4C4800210180817010BD6C
:102A800010B549480078422816D147484078312887
:102A900004D0322806D033280DD108E02D20FFF7CE
:102AA00084FF08E06FF02C00FFF77FFF03E00020B9
:102AB000FFF77BFF00BF00BF3B4800210180817012
:102AC00010BD10B502213A48FDF757FF01280AD181
:102AD0000020FFF76AFF4FF47A70FFF767FC3021A0
:102AE000C820FFF73DFF4FF480713148FDF745FFE7
:102AF00058B930210846FFF733FF4FF47A70FFF7DB
:102B000055FCC8213020FFF72BFF4FF40061284807
:102B1000FDF733FF50B92D20FFF747FF4FF47A70D0
:102B2000FFF744FC3021C820FFF71AFF4FF4805113
:102B30001F48FDF722FF78B96FF02C00FFF735FF33
:102B400030210846FFF70CFF4FF47A70FFF72EFC98
:102B50003021C820FFF704FF10BD10B512480078DF
:102B6000442816D110484078312802D032280FD19D
:102B700003E001200F4908700AE000200D490870A9
:102B800030210846FFF7ECFE0020FFF70EFF00BFE4
:102B900000BF10BD00040040000800406744696F9A
:102BA000F085E13F00C05240D00000202A00002004
:102BB000000801402900002010B5FFF7D8FAFFF700
:102BC000F5FAFFF7D1FCFFF727FDFFF709FDFFF747
:102BD00027FE10BD10B50446012C04D10121F34895
:102BE000FDF7E5FE03E00121F048FDF7E2FE10BD30
:102BF00010B50221ED48FDF7DCFE4FF4FA70FFF747
:102C0000D5FB0221E948FDF7D2FE10BD2DE9F041C8
:102C100006460C4615461F46E548B0F80004C10BB1
:102C2000C903E348A0F800143246E2A1E348FFF7E5
:102C300049FD1CB915B90120BDE8F0813846FFF700
:102C4000B5FBDB49DEA001F06BF8B4B1ADB12146B4
:102C5000D74800F0EBFD08B1012000E0002040B9AA
:102C60002946D34800F0E2FD08B1012000E0002031
:102C700008B10120E0E70020DEE744B12146CC485E
:102C800000F0D4FD08B10120D6E70020D4E72946A2
:102C9000C74800F0CBFD08B10120CDE70020CBE70D
:102CA00010B50221C148FDF782FE4FF47A70FFF79C
:102CB0007DFB01E0FFF79CFFC8230022C1A1C2A059
:102CC000FFF7A4FF0028F5D010BD10B5044624B1CD
:102CD000012C0AD0022C18D10FE040F6C413BBA27D
:102CE000B8A1BDA0FFF792FF10BD40F6C413B7A274
:102CF000B4A1BCA0FFF78AFFF6E740F6C413B3A265
:102D0000B0A1BBA0FFF782FFEEE70020ECE730B5F3
:102D10009FB004460D462B462246B8A101A801F0FB
:102D20000FF841F658330022A6A101A8FFF76EFF65
:102D30001FB030BD70B5A0B004460D4616462B46F8
:102D40002246B3A102A8009600F0FAFF4FF47A736E
:102D500000229CA102A8FFF759FF20B070BD10B55A
:102D600086B004460CB1012000E000200246AEA16E
:102D700001A800F0E5FF4FF4FA73002291A101A829
:102D8000FFF744FF06B010BDF0B5B9B006460F46D8
:102D900014461D46642120A800F03DFD16B1012E09
:102DA00010D107E03B46A4A2A4A120A8009400F003
:102DB000C7FF08E03B46A5A2A0A120A8009400F010
:102DC000BFFF00E000BF00BF052D06DA20AB2A469A
:102DD0009FA102A800F0B4FF04E020AAA1A102A8CC
:102DE00000F0AEFF4FF4FA73A2A276A102A8FFF79B
:102DF0000DFF39B0F0BD70B5BCB004460D461646A7
:102E0000FCB12B4601229FA11EA800F099FF32467B
:102E1000A1A1684600F094FF4FF4FA73002269A163
:102E20001EA8FFF7F3FE50B14FF4FA73002265A11C
:102E30006846FFF7EBFE10B101203CB070BD0020EA
:102E4000FBE72B4600228FA11EA800F079FF4FF46C
:102E5000FA7300225BA11EA8FFF7D8FEEDE710B5BC
:102E60004FF4FA73002257A18FA0FFF7CFFE48B1AD
:102E70004FF4FA7390A291A191A0FFF7C7FE08B199
:102E8000012010BD0020FCE72DE9F04186B0074687
:102E90000C4615461E464FF000082FB1224648A1A9
:102EA0004648FFF70FFC1CE0052E06DAAB1C324645
:102EB00086A101A800F044FF04E0AA1C88A101A893
:102EC00000F03EFF4FF47A73002289A101A8FFF7BA
:102ED0009DFE4FF47A73002286A12046FFF796FEEE
:102EE0008046404606B0BDE8F08170B50446002536
:102EF0002F48B0F80004C10BC9032D48A0F80014F6
:102F0000B0F8000420F400412948A0F8001400BFE4
:102F10002748B0F80004C00BFAD000212448B0F8CC
:102F20000004C0F30E00224A115434B162A11046CD
:102F300000F07CFC38B11E4D05E070A11C4800F08B
:102F400075FC00B11A4D284670BD1CB56DA000F08F
:102F5000E7FE70A11948FFF7B5FB4FF47A70FFF751
:102F600025FA0020FFF7B1FE00BF6BA000906DA016
:102F70000190DDE90001FFF7CAFE0028F5D000BF8F
:102F800005236CA26CA10020FFF7FEFE0028F7D0FD
:102F90006421074800F03FFCFFF761FF0523002292
:102FA00068A10120FFF770FF1CBD00000008014070
:102FB000D000002025730D0A0000000000440040EE
:102FC000257300004F4B0000415400006E6F2063DA
:102FD00068616E676500000041542B43574D4F44B4
:102FE000453D310041542B43574D4F44453D320040
:102FF00041542B43574D4F44453D330041542B43DF
:10300000574A41503D222573222C2225732200006D
:1030100041542B43575341503D222573222C2225E6
:1030200073222C312C25730041542B4349504D55AC
:10303000583D2564000000005443500022257322AF
:103040002C222573222C25730000000055445000CB
:1030500041542B43495053544152543D25642C252F
:103060007300000041542B43495053544152543D86
:1030700025730000414C5245415920434F4E4E4567
:103080004354000041542B43495053455256455236
:103090003D25642C2573000041542B434950535463
:1030A0004F3D25730000000041542B4349504D4FC4
:1030B00044453D31000000003E0000000D0A0000C4
:1030C00041542B43495053454E44000041542B4337
:1030D000495053454E443D25642C256400000000B2
:1030E00041542B43495053454E443D256400000054
:1030F0003E20000053454E44204F4B002B49504486
:10310000000000000D0A57694669CAB5D1E90D0AE9
:10311000000000002B2B2B004E45544745415236F2
:10312000350000006B696E6477696E646F773633C3
:1031300035000000313030003139322E3136382E32
:10314000312E32007B2274797065223A226C6F67CF
:10315000696E222C22636C69656E745F6E616D65A9
:10316000223A226D6375222C22726F6F6D5F696443
:10317000223A2231227D454E4400000008B501214B
:103180003C20FDF723FE10208DF8030003208DF86E
:1031900002004FF48070ADF800006946AC48FDF7BE
:1031A00059FB4FF48071AA48FDF701FC0820ADF8E7
:1031B00000006946A748FDF74DFB2020ADF8000050
:1031C0006946A548FDF746FB4FF44060ADF80000A6
:1031D00069469F48FDF73EFB2020ADF80000694698
:1031E0009B48FDF737FB4FF47F40ADF8000004200B
:1031F0008DF8030003208DF8020069469648FDF71C
:1032000029FB08209549086092491031086008BDE3
:1032100010B500F093F9FFF7B1FF10BD08B501211B
:103220000420FDF7D3FD0120ADF8000004208DF847
:10323000030003208DF80200694688481438FDF722
:1032400009FB08BD08B54FF4C060FDF77DF8062006
:103250008DF8000000208DF8010003208DF8020099
:1032600001208DF803006846FDF773F808BD1CB512
:1032700000210846FDF704FC0120009000208DF895
:1032800004000C208DF8050001208DF8060068462A
:10329000FDF700FA0120FDF74CFA1CBD10B5FFF751
:1032A000BDFFFFF7E4FFFFF7CDFF10BD38B50024E9
:1032B000002000906AA000F033FD8021122000F071
:1032C00043FA20B96FA000F02BFD002038BD0B227F
:1032D0000121684600F058FA20B970A000F020FDE6
:1032E0000020F3E79DF8001070A000F019FD9DF894
:1032F0000000212817D1002410E0714A02EB44029B
:1033000051786F4A12F8140000F01EFA20B96DA02F
:1033100000F006FD0020D9E7601C84B26D480078FB
:103320008442EADB01E00020D0E76BA000F0F8FC6B
:103330000120CBE72DE9F0416F480078012802D148
:103340006EA000F0EDFC00243EE071A17248FFF792
:10335000B9F9002633E000BF002520203C49486130
:103360003D480830006800F47F452020086148612E
:10337000394808300068C0F3072005432020086161
:1033800000BF5D480078012817D14FEA1528EFB239
:103390006148001DA0F8008000BF80215E48FEF754
:1033A00031FE0028F9D05C48001D078000BF802155
:1033B0005948FEF727FE0028F9D0701C86B2B6F5F2
:1033C000A07FC8DB601C84B2F02CBEDB4A480078CA
:1033D000012809D151A15048FFF774F950A000F01D
:1033E0009FFC002053490870BDE8F08110B551489A
:1033F0000078432802D101203F4908704E480078E8
:10340000022813D100BF40021149486120204861C1
:1034100008614001086120204861086100BFFFF792
:1034200089FF0020444908703349087010BD10B569
:10343000FFF7EEFE00BFFFF739FF0128FBD1FFF7D2
:103440002DFF00202C4908703B49087010BD00007A
:103450000010014000140140000C0140140801401C
:103460006F7637373235205265676973746572201D
:10347000436F6E6669672053746172742E2E2E2E10
:103480002E2E000073636362207772697465206476
:10349000617461206572726F720000007265616410
:1034A000206964206661696C6400000053656E7376
:1034B0006F7220494420697320307825780000001D
:1034C000300000207772697465207265672066613C
:1034D000696C6400CA0000206F763737323520529D
:1034E0006567697374657220436F6E666967205300
:1034F0007563636573730000280000205374617264
:10350000742073656E64696E672E0D0A00000000FA
:10351000535441525400000000440040454E4400C2
:10352000456E64206F6620656E64696E672E0D0AB5
:1035300000000000D0000020CB00002008B50121D1
:103540001020FDF743FCC020ADF8000003208DF8EB
:10355000020014208DF803006946AA48FDF77AF9A5
:1035600008BD4FF4C87001E0411E88B20028FBD1AD
:10357000704710B58021A348FDF719FA4021A148F2
:10358000FDF715FAFFF7EDFF80219E48FDF7F5F9ED
:1035900008B9002010BD80219A48FDF70AFAFFF70C
:1035A000E0FF80219748FDF7E8F908B10020F1E736
:1035B00080219448FDF7FDF9FFF7D3FF0120E9E7EB
:1035C00010B540218F48FDF7F4F9FFF7CAFF8021BD
:1035D0008C48FDF7EEF9FFF7C4FF40218948FDF75D
:1035E000E6F9FFF7BEFF80218648FDF7E0F9FFF717
:1035F000B8FF10BD10B540218248FDF7DAF9FFF79A
:10360000B0FF80217F48FDF7D4F9FFF7AAFF4021E2
:103610007C48FDF7CCF9FFF7A4FF40217948FDF77E
:10362000C8F9FFF79EFF10BD10B540217548FDF7A2
:10363000C0F9FFF796FF80217248FDF7B8F9FFF750
:1036400090FF40216F48FDF7B2F9FFF78AFF402154
:103650006C48FDF7AEF9FFF784FF10BD10B54021AF
:103660006848FDF7A6F9FFF77CFF80216548FDF764
:103670009EF9FFF776FF40216248FDF798F9FFF7C2
:1036800070FF80215F48FDF778F928B140215D483F
:10369000FDF78FF9002010BD40215A48FDF789F948
:1036A0000120F8E770B5044608251BE04021554885
:1036B000FDF77FF9FFF755FF04F0800020B180216E
:1036C0005048FDF774F903E080214E48FDF771F989
:1036D0006006040EFFF745FF40214A48FDF767F9F1
:1036E000FFF73FFF2800A5F10101CDB2DED1402157
:1036F0004448FDF75EF970BD70B5082500248021AF
:103700004048FDF754F914E06006040E40213D489E
:10371000FDF74FF9FFF725FF40213A48FDF747F93C
:10372000FFF71FFF80213748FDF727F908B144F064
:1037300001042800A5F10101CDB2E5D140213148B5
:10374000FDF737F9204670BD70B504460D46FFF70A
:1037500010FF08B9002070BD4220FFF7A3FFFFF75C
:103760007DFF18B9FFF72CFF0020F4E7E0B2FFF768
:1037700099FFFFF773FF2846FFF794FFFFF76EFFEF
:10378000FFF71EFF0120E6E770B505460C4616461A
:10379000FFF7EFFE08B9002070BD4220FFF782FF5F
:1037A000FFF75CFF18B9FFF70BFF0020F4E7304686
:1037B000FFF778FFFFF752FFFFF702FFFFF7D9FE91
:1037C00008B90020E8E74320FFF76CFFFFF746FF4A
:1037D00018B9FFF7F5FE0020DEE70CE0FFF78CFFDD
:1037E0002870012C02D1FFF71FFF01E0FFF702FF55
:1037F0006D1C601E84B2002CF0D1FFF7E1FE0120A9
:10380000CAE7000000100140D2B201E000F8012B2D
:10381000491EFBD270470022F6E710B513460A4650
:1038200004461946FFF7F0FF204610BD30B50546A7
:103830002A460B4612F8010B13F8014B08B1A042BF
:10384000F8D01CB1002802D06D1CF1E7284630BD2D
:103850002DE9FE4F804681EA0300C00F0C46009020
:1038600021F0004123F00045B8EB0200A94105D248
:103870004046214690461C460B46024623F0004037
:10388000104304D14046214603B0BDE8F08F270D18
:10389000C7F30A00C3F30A510290401A019040286E
:1038A00066DAC3F3130040F4801B0098924620B1FF
:1038B0000023D2EB030A63EB0B0B01985946C0F1CE
:1038C0004002504600F054F906460D46504659460F
:1038D000019A00F05CF910EB08006141002487EACE
:1038E000115284EAE7731A433BD0009A3AB3019A23
:1038F000012A4FEA075210DC001B61EB02014FF076
:10390000004202EA0752CDE90042001C41F5801155
:1039100032462B4600F090F9B6E7001B61EB02013E
:10392000001C41F5801300185B412018A2F5001718
:1039300047EB030140EAD570B6196D4111E06D08FF
:103940004FEA360645EAC0754FEA0752001B61EBA5
:103950000201001C41F5801149084FEA30000019AE
:10396000514132462B4603B0BDE8F04F00F057B945
:103970000098012240000023D0EB020263EBE073C9
:10398000009821464FEAE074B8EB000061EB0401B7
:10399000E9E783F000435BE781F0004158E72DE958
:1039A000FE4F81EA030404F0004421F0004100943A
:1039B0004FF0000B23F0004350EA010402D052EA1A
:1039C000030404D10020014603B0BDE8F08FC3F327
:1039D0000A54C1F30A552C44A4F2F3340194A0FB19
:1039E0000254C1F3130141F48011C3F3130343F4F0
:1039F000801301FB024400FB034E840A970A44EA49
:103A0000815447EA8357A4FB076802958D0A05FB9A
:103A100007854FEA932C04FB0C542705029D4FEABF
:103A2000065847EA1637B5EB08056EEB070C870E0C
:103A3000920E47EA811742EA8312A7FB0201B6EB16
:103A40000B0164EB00042B0D43EA0C335E1844EBCE
:103A50001C50DA465146E7FB0201C5F313044FEA56
:103A60000B3343EA14534FEA0432019C43EA060342
:103A7000A4F10C040294009CCDE900B400F0DCF841
:103A8000A2E70EB5C10F80EAE0700844CA07002122
:103A900040F233438DE80E000A460B4600F0CCF8A6
:103AA00003B000BD00F0004220F00040C10DC0F3A3
:103AB000160040F400007F2901DA002070479629A3
:103AC00003DCC1F19601C84001E096398840002A24
:103AD000F4D04042704701F0004330B421F000417F
:103AE00050EA010206D00A0DA2F56072C1F313017B
:103AF000002A02DC30BC00207047440F44EAC104B5
:103B0000C100E01830BC00EBC25000F052B82DE903
:103B1000F05F0546002092469B4688460646814651
:103B200040241BE0284641464746224600F0E8F87C
:103B300053465A46C01A914110D3114618462246A0
:103B400000F016F82D1A67EB01084F4622460120B7
:103B5000002100F00DF817EB00094E41201EA4F1E2
:103B60000104DFDC484631462A464346BDE8F09F63
:103B7000202A04DB203A00FA02F10020704791402D
:103B8000C2F1200320FA03F3194390407047202A22
:103B900006DBCB17203A41FA02F043EAE07306E075
:103BA00041FA02F3D040C2F1200291400843194685
:103BB00070470029A8BF7047401C490008BF20F08B
:103BC0000100704710B4B0FA80FC00FA0CF050EA23
:103BD000010404BF10BC704749B1CCF1200421FAA4
:103BE00004F411FA0CF118BF012121430843A3EB9F
:103BF0000C01CB1D0106000A002BBEBF002010BC2B
:103C0000704700EBC35010440029A4BF10BC70479C
:103C1000401C490008BF20F0010010BC704710B5DF
:103C2000002B08DA401C41F1000192185B411A4355
:103C300001D120F0010010BD2DE9F04D92469B46C8
:103C400011B1B1FA81F202E0B0FA80F2203290466E
:103C5000FFF78EFF04460F4640EA0A0041EA0B01D7
:103C600053465A46084303D120463946BDE8F08DF5
:103C7000114653EA010015D0C8F14002504600F049
:103C80003FF805460E46504659464246FFF770FF3C
:103C9000084301D0012000E00020054346EAE07619
:103CA0002C4337430A984FEA4453A0EB08004FEAED
:103CB000D4240A304FF0000244EA47544FEAD72593
:103CC00002D500200146D1E7010510196941DDE95F
:103CD000084500196941BDE8F04DA0E7064C074DC5
:103CE00006E0E06840F0010394E8070098471034CC
:103CF000AC42F6D3FCF720FA5440000874400008A8
:103D0000202A04DB203A21FA02F00021704721FA30
:103D100002F3D040C2F12002914008431946704797
:103D20000FB4054B10B503A9044A029800F02CF813
:103D300010BC5DF814FB0000A7250008CC00002093
:103D40000FB4084B10B504A902AA039800F01CF8A0
:103D5000044602A9002000F077F9204610BC5DF867
:103D600014FB00004940000802E008C8121F08C107
:103D7000002AFAD170477047002001E001C1121FEC
:103D8000002AFBD1704700002DE9FF4F8DB09B4604
:103D90000F460446002638E1252801D00F9959E046
:103DA0000025641C9D49A84601222378203B02FA85
:103DB00003F0084202D00543641CF6E720782E2861
:103DC00017D114F8010F45F004052A280ED06FF022
:103DD0002F022078A0F1300109290AD808EB8801C8
:103DE00002EB410100EB0108641CF2E757F8048B79
:103DF000641C20786C280DD004DC4C2812D06A2872
:103E000011D104E074280DD07A280CD10AE045F4D1
:103E1000001507E0617845F48015814202D1641CE9
:103E200005F58015641C2278692A46D008DC002A32
:103E300070D0582A69D0632A11D0642A08D13CE096
:103E4000702A69D0732A14D0752A5CD0782A5CD085
:103E50000F9910465A46904706F10106D4E017F82C
:103E6000040B8DF8000000208DF80100E9460120C8
:103E700003E057F8049B4FF0FF3069074FF000054F
:103E800001D40AE06D1C45450DDA8542FADB19F8CC
:103E900005100029F6D106E06D1C8542FCDB19F8FF
:103EA00005100029F8D12E4404E019F8010B5A46F8
:103EB0000F9990476D1EF8D2A6E00A200021CDE9A7
:103EC0000801C5F3025002280BD001CFC117002909
:103ED0000EDA4FF0000CD0EB0C006CEB01012D233F
:103EE00009E007F1070727F00707F7E80201EEE707
:103EF0002B0504D52B238DF82830012330E0EB0768
:103F00002ED02023F7E70A2000E010200021CDE981
:103F1000080109E07DE0FFE71020002145F00405DD
:103F2000CDE908014FF00808C5F3025002281BD064
:103F300001CF00214FF0000A2B0712D5702A19D0AB
:103F4000DDE908C38CF0100C5CEA030C09D150EADF
:103F5000010306D030238DF828308DF82920022364
:103F60009A46582A10D00AE0FF1D27F00707F7E805
:103F70000201DFE740228DF828204FF0010A28A235
:103F80000DF120090B9209E02AA2F9E7DDE90823E7
:103F9000FFF7BDFD0B9B9B5C09F8013D50EA010258
:103FA000F4D1ADEB090000F120000890680701D4BE
:103FB0004FF001080899884502DDA8EB010000E0F8
:103FC00000208046002506E00AA85A46405D0F9969
:103FD0009047761C6D1C5545F6DB04E030205A46B0
:103FE0000F999047761CB8F10001A8F10108F5DCA3
:103FF00005E019F8010B5A460F999047761C08996D
:10400000481E08900029F4DC641C207800287FF406
:10401000C3AE11B03046BDE8F08F000009280100A2
:10402000303132333435363738396162636465662E
:1040300000000000303132333435363738394142F0
:1040400043444546000000000A68531C0B60107092
:10405000704700007440000800000020D0000000FD
:10406000683D000844410008D00000200808000016
:10407000783D000800A24A04000000000000000093
:1040800001020304060708090000000001020304FE
:1040900001020304060708090204060800000000E4
:1040A0000000000011001246173F185019031A783B
:1040B000320029502C782A00427F4D0963E064FFCA
:1040C00065206600670013F00D810FC5142122FFE3
:1040D00023012434253C26A12B006BAA13FF695D24
:1040E000900A910192019301945F95539611971A4A
:1040F000983D995A9A1E9B009C25A765A8659E81AC
:10410000A6067E0C7F16802A814E8261836F847B97
:104110008586868E879788A489AF8AC58BD78CE8D9
:104120008D20A980AA80ACFF3300229923034A0086
:10413000491347084B144C1746050CD00EF54D009B
:04414000000000007B
:0400000508000131BD
:00000001FF
