:020000040800F2
:1000000058090020E50200084501000847010008E2
:100010004B0100084F0100085301000800000000D8
:100020000000000000000000000000005701000870
:1000300059010008000000005B0100085D01000894
:10004000FF020008FF020008FF020008FF0200088C
:10005000FF020008FF020008650100080D390008D2
:10006000FF020008FF020008FF020008FF0200086C
:10007000FF020008FF020008FF020008FF0200085C
:10008000FF020008FF020008FF020008FF0200084C
:10009000FF020008FF020008FF020008353A0008CE
:1000A000FF020008FF020008FF020008FF0200082C
:1000B0003D3800085338000869380008FF0200087E
:1000C000FF020008FF020008FF020008FF0200080C
:1000D000FF0200089B020008B5010008FF020008AB
:1000E000FF020008FF020008FF020008FF020008EC
:1000F000FF020008FF020008FF020008FF020008DC
:10010000FF020008FF020008FF020008FF020008CB
:10011000FF020008FF020008FF020008FF020008BB
:10012000FF020008FF020008FF020008FF020008AB
:10013000DFF80CD004F016FE0048004765280008E0
:1001400058090020704700BFFEE700BFFEE700BF70
:10015000FEE700BFFEE770477047704710B502F03A
:1001600019FE10BD10B5012000F0C6FB08B35348BE
:10017000007880B920205249086008205149086061
:1001800001204E49087008204E49086020204C4943
:10019000091F08600AE049480078012806D10820B4
:1001A0004849091D0860022044490870012000F0F8
:1001B000B4FB10BD10B544480078C8BB40F22551CF
:1001C000424802F00BFBE8B1404802F087FAC4B2A3
:1001D0003F4804703F48B0F80004C0F30E0040F2FE
:1001E000FF3188420EDA3B49B1F80014C1F30E002A
:1001F000411C384AB2F8002461F30E023549A1F8D7
:1002000000240C5440F22441304802F0E7FA01285F
:1002100042D13048B0F8000420F4004000F500401E
:100220002C49A1F80004294802F058FAC4B233E07E
:10023000FFE72548007801282ED140F225512348B8
:1002400002F0CCFA10B3214802F048FAC4B22048B8
:1002500004703E2C07D100201F49087064211F48FC
:1002600004F06FFA18E01C480078401C1A49087026
:10027000232C0CD1002118480078401E174A115435
:10028000002015490870104603F0F3F804E0124806
:100290000078401E11490C5410BD10B540F2255194
:1002A0000F4802F09BFA38B10D4802F017FAC4B2B9
:1002B0002146064802F00EFA10BD0000E7000020BB
:1002C000140C014010140140340000200044004090
:1002D0003D0000205401002000000020F00000201C
:1002E000003801400648804706480047FEE7FEE721
:1002F000FEE7FEE7FEE7FEE7FEE7FEE7FEE7FEE7D6
:10030000E5030008310100080CB5002001900090C1
:100310006B48006840F480306949086000BF684855
:10032000006800F4003000900198401C0190009893
:1003300018B90198B0F5A06FF1D16148006810F4C8
:10034000003F02D00120009001E0002000900098C2
:10035000012842D15B48006840F01000594908600C
:100360000846006820F0030008600846006840F076
:100370000200086052484068514948600846406899
:1003800048600846406840F480604860084640681D
:1003900020F47C1048600846406840F4E81048604B
:1003A0000846006840F08070086000BF444800685C
:1003B00010F0007FFAD04248406820F00300404926
:1003C00048600846406840F00200486000BF3C4872
:1003D000406800F00C000828F9D10CBD10B5FFF7FB
:1003E00093FF10BD10B53648006840F00100344955
:1003F000086008464068344908403149486008466A
:100400000068324908402E4908600846006820F418
:10041000802008600846406820F4FE0048604FF4E1
:100420001F008860FFF7DAFF4FF00060284908607E
:1004300010BD10B5002100200022214B5B6803F0A5
:100440000C0121B1042906D0082928D107E0214B4D
:10045000214C236027E01F4B1F4C236023E0184BE7
:100460005B6803F47010164B5B6803F48032022360
:1004700003EB904022B9194B4343174C23600DE026
:100480000F4B5B6813F4003F04D0144B4343124CF2
:10049000236003E00F4B43430F4C236003E00D4BFD
:1004A0000D4C236000BF00BF054B5B68C3F3031313
:1004B0000B4CE15C084B1B68CB40074C236010BD24
:1004C00000100240002002400000FFF8FFFFF6FE8F
:1004D00008ED00E000127A000400002000093D0051
:1004E0000800002031490143314A1160704770B55E
:1004F000002100230F22C4780CB32D4C246804F48F
:10050000E064C4F5E064210AC1F10403CA40447800
:1005100004FA03F18478144021430901254C06783C
:10052000A155047804F01F050124AC4005786D1135
:100530004FF0E02606EB8505C5F8004109E0047898
:1005400004F01F050124AC401B4D0678761145F8D8
:10055000264070BD194A0A400243154B1B1F1A6002
:10056000704739B1124A121D12680243104B1B1D0D
:100570001A6006E00E4A121D126882430C4B1B1DC6
:100580001A607047042808D14FF0E021096941F052
:1005900004014FF0E022116107E04FF0E02109690A
:1005A00021F004014FF0E022116170470000FA05CC
:1005B0000CED00E000E400E080E100E080FFFF1FC0
:1005C00001684FF6FE721140016000210160416038
:1005D0008160C1608C49884208D18B4908394968DB
:1005E00041F00F01884A083A51608AE08649143187
:1005F000884208D184490839496841F0F001824AAB
:10060000083A51607DE080492831884208D17E490E
:100610000839496841F470617B4A083A516070E0DA
:1006200079493C31884208D177490839496841F411
:100630007041754A083A516063E07349503188420D
:1006400008D171490839496841F470216E4A083A65
:10065000516056E06C496431884208D16A490839D2
:10066000496841F47001684A083A516049E06649B6
:100670007831884208D164490839496841F070618D
:10068000614A083A51603CE06049884206D1011F46
:10069000096841F00F01021F116032E05B4914311B
:1006A000884208D15949091F096841F0F001574AA9
:1006B000121F116025E055492831884208D153495D
:1006C000091F096841F47061504A121F116018E057
:1006D0004E493C31884208D14C49091F096841F410
:1006E00070414A4A121F11600BE04849503188425C
:1006F00007D14649091F096841F47021434A121F76
:100700001160704710B50022026847F6F0739A43F3
:100710000C6A8B6823430C6923434C6923438C691F
:100720002343CC6923434C6A23438C6A23431A43F3
:100730000260CB6843600B6883604B68C36010BD88
:100740000021016041608160C1600161416181619E
:10075000C161016241628162704721B1026842F069
:100760000102026004E002684FF6FE731A40026064
:1007700070471AB103680B43036002E003688B43C0
:1007800003607047416070470146486880B2704717
:1007900001460020002211F0805F03D01B4B083B74
:1007A0001A6802E0184B083B1A680A4201D001207F
:1007B00000E00020704710F0805F03D01349091F4C
:1007C000086002E01049083948607047014600207F
:1007D000002211F0805F03D00C4B083B1A6802E046
:1007E000094B083B1A680A4201D0012000E00020B2
:1007F000704710F0805F03D00449091F086002E0D1
:100800000149083948607047080002400804024066
:10081000002044490860091D0860091D0860091D81
:10082000086041483F4914310860704700213D4944
:100830008279002A3AD00A46126803689A430B4626
:100840001A600A1D126803689A430B1D1A60027928
:1008500011440A6803681A430A60324A083212686F
:1008600003689A432F4B08331A601A1D12680368F5
:100870009A432C4B0C331A604279102A0ED11A1F5E
:10088000126803681A43274B08331A601A1D12684E
:1008900003681A43234B0C331A600DE02149427957
:1008A00011440A6803681A430A6005E0027911449A
:1008B0000A6803689A430A60704700210160017169
:1008C0000C2141710021817170471649103109686E
:1008D0000143144A10321160704701460020114A4A
:1008E000143212680A4201D0012000E00020704753
:1008F0000C49143108607047014600200022094B62
:100900001B6803EA0102074B14331B680B4202D039
:100910000AB1012000E0002070470249143108604C
:100920007047000000040140FFFF0F0030B943F2A0
:10093000DB014FF0204242F8201005E043F2D201E3
:100940004FF0204242F820106FF07042411C4FF0EF
:10095000204343F8212011461A4602EB8002C2F8D8
:100960000411704710280AD118214FF02042116657
:10097000402151664FF0FC319166D16610E018219C
:10098000F84A11604FF040014FF02042C2F8841045
:100990004FF0FC31F44A11604FF02042C2F88C1045
:1009A00070471820F14908604FF000004FF02041D7
:1009B000C1F8A4004FF0FC30ED49086001F10401DA
:1009C000086001F1040108607047D0E90112114389
:1009D000C26811430269114342691143826911439C
:1009E000C2691143026A1143426A1143826A114388
:1009F000C26A1143026B11434FF02043026843F86F
:100A000022108168082908D11A46016852F821107D
:100A100041F04001026843F82210416B0968426BC3
:100A2000526841EA0211426B926841EA0221426B2C
:100A3000928941EA0241426B128A41EA0251426BB9
:100A4000127D41EA0261426B926911430268521CB5
:100A50004FF0204343F82210C16AB1F5804F1AD1FC
:100A6000816B0968826B526841EA0211826B92685D
:100A700041EA0221826B128A41EA0251826B127DA5
:100A800041EA0261826B92691143026803EB8202C0
:100A9000C2F8041108E06FF070414FF02043026883
:100AA00003EB8202C2F80411704730B50021002226
:100AB0000023446844F0080485682C43C5682C432F
:100AC00005692C43456944EA4524856944EA453172
:100AD000C4692468C5696D6844EA0524C5692D891F
:100AE00044EA0544C5692D7B44EA0562046A24682A
:100AF000056A6D6844EA0524056A2D8944EA0544BF
:100B0000056A2D7B44EA05630468102C05D14FF07B
:100B100020442166A266E36607E0924C21604FF014
:100B20002044C4F88820934C236030BD016841F014
:100B30001001426841EA4221826841EA42318B4A0F
:100B40001160C1680968C268526841EA0221C2683E
:100B5000128941EA0241C268127B41EA0261844A79
:100B60001160016909680269526841EA022102695B
:100B7000128941EA02410269127B41EA02617E4A1E
:100B80001160416909684269526841EA022142697B
:100B9000128941EA02414269127B41EA02614FF047
:100BA0002042C2F8B010704700210160022141606C
:100BB00000218160C160016141618161C1610162A7
:100BC0004FF480514162490081620021C16201639A
:100BD0000F21426B1160426B5160FF21426B9160AB
:100BE0000F21426BD160426B1161426B5161002158
:100BF000426B91610F21826B1160826B5160FF210A
:100C0000826B91600F21826BD160826B1161826B6C
:100C100051610021826B91617047102101600021B8
:100C200041608160C160016141618161FC21C269F3
:100C30001160C2695160C2699160C269D160026A83
:100C40001160026A5160026A9160026AD160704765
:100C50000021016041608160FC21C2681160C268AE
:100C60005160C2689160C268D16002691160026916
:100C70005160026991600269D16042691160426904
:100C80005160426991604269D160704751B14FF043
:100C9000204252F8202042F001024FF0204343F856
:100CA000202009E04FF0204252F82020334B1A4018
:100CB0004FF0204343F82020704799B1102808D105
:100CC0004FF02042126E42F004024FF020431A66A9
:100CD0001DE0244A126842F004024FF02043C3F89A
:100CE000802014E0102809D14FF02042126E234BCF
:100CF000DB1E1A404FF020431A6608E0194A1268BA
:100D00001F4B02EA03024FF02043C3F880207047D4
:100D100040B11649096841F004014FF02042C2F881
:100D2000A01008E011490968154A01EA02014FF0D4
:100D30002042C2F8A010704799B1102808D14FF096
:100D40002042126E42F040024FF020431A662DE01E
:100D5000044A126842F040024FF02043C3F880205A
:100D600024E00FE0800000A0880000A0A00000A008
:100D7000A80000A08C0000A0AC0000A0FEFF0F00A7
:100D8000FBFF0F00102808D14FF02042126E684B75
:100D90001A404FF020431A6608E0664A1268644B16
:100DA00002EA03024FF02043C3F880207047014657
:100DB0000020102903D14FF02042506F01E05E4A1D
:100DC0001068704710B5F2B1102807D14FF02043DA
:100DD0005B6E0B434FF02044636632E0B0F5807FDA
:100DE00008D1564B1B6843EA01034FF02044C4F876
:100DF000843026E0524B1B6843EA01034FF0204445
:100E0000C4F8A4301DE0102807D14FF020435B6EDA
:100E10008B434FF02044636613E0B0F5807F08D128
:100E2000464B1B6823EA01034FF02044C4F884308A
:100E300007E0434B1B6823EA01034FF02044C4F84A
:100E4000A43010BD10B5024600200023102A03D1A3
:100E50004FF02044636E07E0B2F5807F02D1374C3B
:100E6000236801E0364C23680B4201D0012000E0EA
:100E7000002010BD102807D14FF02042526E8A4347
:100E80004FF020435A6613E0B0F5807F08D12B4A1B
:100E9000126822EA01024FF02043C3F8842007E0E1
:100EA000274A126822EA01024FF02043C3F8A42027
:100EB000704770B502460020002300240025102A48
:100EC00003D14FF02046736E07E0B2F5807F02D168
:100ED0001A4E336801E01A4E336803EA010403EA4C
:100EE000D10514B10DB1012000E0002070BD102823
:100EF00008D14FF02042526E22EAD1024FF0204337
:100F00005A6613E0B0F5807F08D10C4A126822EAD5
:100F1000D1024FF02043C3F8842007E0084A12684A
:100F200022EAD1024FF02043C3F8A420704700000A
:100F3000BFFF0F00800000A0940000A0840000A06C
:100F4000A40000A010B50446CA48844208D101217B
:100F5000042000F027FB0021042000F023FB46E0E2
:100F6000C548844208D10121082000F01BFB002164
:100F7000082000F017FB3AE0C048844208D1012164
:100F8000102000F00FFB0021102000F00BFB2EE0E2
:100F9000BB48844208D10121202000F003FB00213E
:100FA000202000F0FFFA22E0B648844208D1012157
:100FB000402000F0F7FA0021402000F0F3FA16E09C
:100FC000B148844208D10121802000F0EBFA0021D1
:100FD000802000F0E7FA0AE0AC48844207D1012102
:100FE000801500F0DFFA0021A01500F0DBFA10BD3B
:100FF00010B50121084600F0D5FA0021012000F0CB
:10100000D1FA10BD2DE9F04102460025002600204E
:1010100000230024002791F803C00CF00F0591F87D
:1010200003C01CF0100F03D091F802C04CEA050574
:1010300091F800C0BCF1000F31D0146800202BE003
:101040004FF0010C0CFA00F3B1F800C00CEA0306F3
:101050009E4220D183004FF00F0C0CFA03F7BC43E3
:1010600005FA03FC4CEA040491F803C0BCF1280F14
:1010700006D14FF0010C0CFA00FCC2F814C00AE0D3
:1010800091F803C0BCF1480F05D14FF0010C0CFAE8
:1010900000FCC2F810C0401C0828D1D31460B1F87D
:1010A00000C0BCF1FF0F34DD546800202EE000F1D9
:1010B000080C4FF0010808FA0CF3B1F800C00CEA74
:1010C00003069E4221D183004FF00F0C0CFA03F768
:1010D000BC4305FA03FC4CEA040491F803C0BCF1DC
:1010E000280F05D100F1080C08FA0CF8C2F814809A
:1010F00091F803C0BCF1480F07D100F1080C4FF084
:10110000010808FA0CF8C2F81080401C0828CED359
:101110005460BDE8F0814FF6FF71018002218170BB
:101120000421C17070470246002093680B4201D031
:10113000012000E0002070470146886880B27047B7
:1011400002460020D3680B4201D0012000E00020BD
:1011500070470146C86880B27047016170474161BD
:1011600070470AB1016100E041617047C16070479A
:101170004FF480320A4382618161826182698269AF
:10118000704702460020424B18684FF680731840A3
:1011900040EA021008433E4B186070473D49C86161
:1011A0007047F0B50A46002300240021002500F016
:1011B0000046B6F1004F02D1354EF16901E0344EE0
:1011C0007168C0F3034583B200F44016B6F5401FC2
:1011D00008D121F070612E4E766826F070662C4F93
:1011E0007E6012E000F48016B6F5801F06D103265B
:1011F00006FA05F4A14341F0706106E0460D3601A0
:1012000003FA06F6B14341F0706122B1460D360192
:1012100003FA06F6314300F00046B6F1004F02D162
:101220001B4EF16101E01A4E7160F0BD30B5002235
:101230008B071C0F0F2303FA04F2154B08338C1095
:1012400053F824309343124C08348D1044F8253061
:1012500023468C1053F824308C07240F00FA04F432
:1012600023430B4C08348D1044F8253030BD0A4917
:101270000860704700080140000C01400010014068
:101280000014014000180140001C014000200140F2
:101290000000014000002042DC002042DD480068E0
:1012A00040F00100DB49086008464068DA49084020
:1012B000D849486008460068D8490840D5490860C0
:1012C0000846006820F4802008600846406820F442
:1012D000FE0048604FF41F0088607047CD490968E0
:1012E00021F48031CB4A11601146096821F4802134
:1012F0001160B0F5803F03D0B0F5802F0ED106E02D
:10130000C449096841F48031C24A116007E0C1490B
:10131000096841F4A021BF4A116000E000BF00BF8E
:10132000704710B501460022002300204A11012A0F
:1013300002D1B84C236806E0022A02D1B54C236AD8
:1013400001E0B44C636A01F01F02012494401C4286
:1013500001D0012000E0002010BD38B50020009031
:101360000024002500BF3120FFF7DBFF0546009871
:10137000401C00900098B0F5A06F01D0002DF2D075
:101380003120FFF7CEFF08B1012400E00024204601
:1013900038BD014600209F4A106820F0F80040EA5E
:1013A000C100106070479E490860704702460020E7
:1013B000984B586820F47C1042EA01031843954B7F
:1013C0005860704796490866704701460020914A68
:1013D000506820F003000843506070478D48406813
:1013E00000F00C007047014600208A4A506820F047
:1013F000F00008435060704701460020854A50685D
:1014000020F4E06008435060704701460020814AA4
:10141000506820F4605040EAC1005060704729B124
:101420007C4A527A02437B4B5A7204E0794A527AE0
:101430008243784B5A7270477A4908607047014678
:101440000020744A506820F44040084350607047C0
:101450000021754A11706F4A82F82010012802D0CD
:10146000042808D103E001216F4A117004E005212E
:101470006D4A117000E000BF00BF70476B49086003
:1014800070476449096A0143624A116270476749BB
:1014900044390860704730B5002100220024002341
:1014A0005C4D6D6805F00C0121B1042905D00829B7
:1014B00023D105E05E4D056022E05D4D05601FE033
:1014C000544D6D6805F47012524D6D6805F480340A
:1014D000022505EB92421CB9564D554305600BE0C1
:1014E0004C4D6D6815F4003F03D0524D55430560D7
:1014F00002E04F4D5543056002E04D4D056000BFD1
:1015000000BF444D6D6805F0F00109094A4D6B5C60
:101510000568DD4045603F4D6D6805F4E061090AEE
:10152000454D6B5C4568DD4085603A4D6D6805F45E
:101530006051C90A404D6B5C4568DD40C560354D62
:101540006D6805F44041890B3C4D6B5CC568B5FB8B
:10155000F3F5056130BD29B12E4A526902432D4B86
:101560005A6104E02B4A526982432A4B5A61704700
:1015700029B1284A92690243264B9A6104E0254A20
:1015800092698243234B9A61704729B1214AD269FB
:101590000243204BDA6104E01E4AD26982431D4BAC
:1015A000DA61704729B11B4AD2680243194BDA60ED
:1015B00004E0184AD2688243164BDA60704729B1BA
:1015C000144A12690243134B1A6104E0114A12696A
:1015D0008243104B1A6170471449403908607047C4
:1015E0000F49C86470470B49C87170470948406A81
:1015F00040F0807007494862704701460020054A64
:1016000092680A4201D0012000E0002070470149A1
:1016100088727047001002400000FFF8FFFFF6FEDE
:1016200000004242D8004242201002408004424260
:1016300000127A0000093D00180000202800002058
:1016400010B50446FE48844208D10121C014FFF7BA
:10165000A9FF0021E014FFF7A5FFC4E0B4F1804F1B
:1016600008D101210846FFF7AAFF00210120FFF75A
:10167000A6FFB8E0F348844208D101210220FFF719
:101680009EFF00210220FFF79AFFACE0EE48844263
:1016900008D101210420FFF792FF00210420FFF769
:1016A0008EFFA0E0E948844208D101210820FFF71D
:1016B00086FF00210820FFF782FF94E0E44884427F
:1016C00008D101211020FFF77AFF00211020FFF739
:1016D00076FF88E0DF48844208D101212020FFF70F
:1016E0006EFF00212020FFF76AFF7CE0DA48844289
:1016F00008D101214014FFF755FF00216014FFF7C6
:1017000051FF70E0D548844209D10121C804FFF798
:1017100049FF00214FF40020FFF744FF63E0D04869
:10172000844209D101210805FFF73CFF00214FF455
:101730008010FFF737FF56E0CA48844209D10121E3
:101740004805FFF72FFF00214FF40010FFF72AFF95
:1017500049E0C548844208D101214020FFF72FFF0E
:1017600000214020FFF72BFF3DE0C048844208D114
:1017700001218020FFF723FF00218020FFF71FFFBA
:1017800031E0BB48844208D101218015FFF717FFE3
:101790000021A015FFF713FF25E0B648844209D1C8
:1017A00001210804FFF7FEFE00214FF48030FFF70F
:1017B000F9FE18E0B048844209D101214804FFF73E
:1017C000F1FE00214FF40030FFF7ECFE0BE0AB48D8
:1017D000844208D101218804FFF7E4FE00214FF480
:1017E0008020FFF7DFFE10BD00220288944B984254
:1017F0000ED0994B98420BD0B0F1804F08D0914B4E
:10180000984205D0904B984202D0904B984204D118
:101810004FF68F731A404B881A438D4B984207D06E
:101820008C4B984204D04FF6FF431A40CB881A43A2
:1018300002808B8883850B880385814B98420BD06F
:10184000854B984208D08B4B984205D08A4B9842E2
:1018500002D08A4B984201D10B7A038601238382FE
:10186000704770B5002400220023058C4FF6FE76E9
:1018700035400584028C8388048B4FF68F752C408D
:10188000B51E2C400D882C43751E2A400D892A4315
:101890004D882A436A4DA8420BD06F4DA84208D00C
:1018A000744DA84205D0744DA84202D0734DA84291
:1018B00013D14FF6F7752A404D892A434FF6FB7531
:1018C0002A408D882A434FF6FF652B404FF6FF557F
:1018D0002B408D892B43CD892B4383800483CD8876
:1018E0008586028470BD70B5002400220023058C1B
:1018F0004FF6EF7635400584028C8388048B48F6DA
:10190000FF752C404FF6FF452C400D884FF6FF76B3
:1019100006EA05252C434FF6DF752A400D8906EAB5
:1019200005152A434D8806EA05152A43444DA84269
:1019300002D0494DA8421DD14FF67F752A404D89EE
:101940004FF6FF7606EA05152A434FF6BF752A4083
:101950008D8806EA05152A434FF6FF352B404FF2D6
:10196000FF752B408D8906EA85052B43CD8906EA54
:1019700085052B4383800483CD880587028470BD51
:1019800070B5002400220023058C4FF6FF66354019
:101990000584028C8388848B4FF68F752C404FF61C
:1019A000FC752C400D882C434FF6FF552A400D89BD
:1019B0004FF6FF7606EA05252A434D8806EA0525F7
:1019C0002A431F4DA84202D0234DA8421DD14FF2F9
:1019D000FF752A404D894FF6FF7606EA05252A4312
:1019E0004FF6FF352A408D8806EA05252A434EF634
:1019F000FF752B404DF6FF752B408D8906EA0515C6
:101A00002B43CD8906EA05152B4383808483CD883B
:101A10008587028470BD70B5002200230024058CE8
:101A20004EF6FF7635400584038C8488828B48F619
:101A3000FF752A404FF6FF452A400D8820E0000040
:101A4000002C01400004004000080040000C004051
:101A5000001000400014004000340140004C0140E0
:101A6000005001400054014000180040001C00409C
:101A70000020004000400140004401400048014077
:101A80004FF6FF7606EA05252A434DF6FF752B40F3
:101A90000D8906EA05352B434D8806EA05352B43AB
:101AA000FA4DA84202D0FA4DA84208D14BF6FF7574
:101AB0002C408D894FF6FF7606EA85152C438480ED
:101AC0008283CD88A0F84050038470BD828B4FF292
:101AD000FF331A408283828B4FF6FF7303EA0123A0
:101AE0001A4382837047F0B50C4615460022002148
:101AF0000026078C4EF6FF7C07EA0C070784828BD2
:101B0000018C4FF6FF7707EA043640F6FF473A406C
:101B10004FF6FF7707EA05273A434FF6FF7707EAC4
:101B200003373A43D94FB8420ED0D94FB8420BD001
:101B3000B0F1804F08D0D74FB84205D0D64FB84249
:101B400002D0D64FB84206D14DF6FF77394046F461
:101B50008057394305E047F6FF57394044F4805732
:101B6000394382830184F0BD828B4FF6F3731A40B0
:101B70008283828B0A4382837047F0B50C461546F8
:101B8000002200210026078C4FF6FF6C07EA0C07A5
:101B90000784828B018C4FF6FF7707EA04264FF605
:101BA0000C773A404FF6FF7707EA03172F433A4383
:101BB000B64FB8420ED0B64FB8420BD0B0F1804FFE
:101BC00008D0B44FB84205D0B34FB84202D0B34F9B
:101BD000B84206D14FF6FF57394046F48077394373
:101BE00005E04FF2FF57394044F480773943828350
:101BF0000184F0BD028B4FF2FF331A400283028B47
:101C00004FF6FF7303EA01231A4302837047F0B5CE
:101C10000C461546002200210026078C4FF6EF7C6B
:101C200007EA0C070784028B018C4FF6FF7707EA5F
:101C3000041640F6FF473A404FF6FF7707EA0337AE
:101C40003A434FF6FF7707EA05273A438F4FB842EA
:101C50000ED08F4FB8420BD0B0F1804F08D08D4FCF
:101C6000B84205D08C4FB84202D08C4FB84206D152
:101C70004FF6DF77394046F01007394305E04FF65D
:101C80005F77394044F01007394302830184F0BD87
:101C9000028B4FF6F3731A400283028B0A430283CE
:101CA0007047F0B50C46154600220021068C4FF611
:101CB000FE773E400684028B018C4FF60C76324054
:101CC0007E1C06EA03162E433243704EB0420ED0FD
:101CD0006F4EB0420BD0B0F1804F08D06D4EB04285
:101CE00005D06D4EB04202D06C4EB04206D14FF6D8
:101CF000FD76314044F00106314305E04FF6F576BC
:101D0000314044F00106314302830184F0BD70B5D7
:101D100005460C465D4885420ED05D4885420BD095
:101D2000B5F1804F08D05B48854205D05A488542BE
:101D300002D05A48854200D100E000BF208850B947
:101D40002389A28861882846FFF7ABFFE1882846EF
:101D5000FFF79EFF25E0208804280AD12389A28866
:101D600061882846FFF753FFE1882846FFF742FFC6
:101D700017E0208808280AD12389A288618828468C
:101D8000FFF7FBFEE1882846FFF7EEFE09E0238916
:101D9000A28861882846FFF7A6FEE1882846FFF75B
:101DA00095FE70BD2DE9F04105460C460026012741
:101DB000608808B9022600E00026A088012801D129
:101DC000022700E001272088A0B92389A288618822
:101DD0002846FFF766FFE1882846FFF759FF238969
:101DE0003A4631462846FFF712FFE1882846FFF7BA
:101DF00001FF13E02389A28861882846FFF707FFC7
:101E0000E1882846FFF7F6FE23893A463146284600
:101E1000FFF747FFE1882846FFF73AFFBDE8F0816A
:101E20000A884B881A438B881A43CB881A430B893C
:101E30001A434B891A438B891A43A0F844207047F0
:101E40004FF6FF71818000210180C18041800172C5
:101E500070470021018041808180C18001814181E2
:101E60008181C181704700210180418001218180F1
:101E70000021C18001817047002101804180818063
:101E8000C18001814181818170470000002C0140A7
:101E9000003401400004004000080040000C0040F5
:101EA00021B1028842F00102028004E002884FF66C
:101EB000FE731A400280704731B1B0F8442042F4FA
:101EC0000042A0F8442005E0B0F84420C2F30E021E
:101ED000A0F8442070471AB183890B43838102E044
:101EE00083898B43838170478182704741EA020373
:101EF000A0F8483070471AB183890B43838102E010
:101F000083898B438381704701894FF6F8721140B2
:101F1000018170470A46002101894FF68F731940ED
:101F200011430181704730B504460D4629462046CD
:101F3000FFF7F0FF208940F00700208130BD2DE938
:101F4000F04104460D4616461F46602D06D13B461D
:101F5000012231462046FFF75AFE05E03B460122AA
:101F600031462046FFF79DFE29462046FFF7D2FF67
:101F7000208940F007002081BDE8F08130B50C4693
:101F800000210189C9B24FF6FF7505EA0325154303
:101F900025432943018130BD2DE9F04105460E4618
:101FA00017469846002443463A4631462846FFF7EE
:101FB000E5FF2C894FF6F870044044F007044FF613
:101FC0008F70044044F070042C81BDE8F081F0B5BE
:101FD00004460D4616461F463B46324629462046D5
:101FE000FFF7CCFF208940F480402081F0BD0185BF
:101FF000828270470A46002101884FF68F7319408C
:10200000114301807047F0B50C4615461E4600216D
:10201000002200230189028B038C4FF6F8773940A8
:1020200021434FF6FC473A4040F201173A434FF63E
:10203000DD773B404FF6FF7707EA06172F433B4318
:10204000018102830384F0BD0A460021018B4FF613
:102050008F7319401143018370470A460021018B99
:1020600048F6FF7319404FF6FF7303EA0223194342
:10207000018370470A460021818B4FF68F73194008
:102080001143818370470A460021818B48F6FF7314
:1020900019404FF6FF7303EA022319438183704707
:1020A00021B1028842F08002028004E002884FF6EB
:1020B0007F731A400280704721B1828842F0040287
:1020C000828004E082884FF6FB731A40828070475A
:1020D00021B1828842F00802828004E082884FF6B3
:1020E000F7731A408280704721B1828842F0010262
:1020F000828004E082884FF6FE731A408280704727
:102100000A460021018B4FF6F773194011430183F2
:1021100070470A460021018B4FF2FF7319404FF6BA
:10212000FF7303EA02231943018370470A46002123
:10213000818B4FF6F77319401143818370470A462C
:102140000021818B4FF2FF7319404FF6FF7303EAB2
:1021500002231943818370470A460021018B4FF601
:10216000FB7319401143018370470A460021018B1C
:102170004FF6FF3319404FF6FF7303EA022319436A
:10218000018370470A460021818B4FF6FB7319408B
:102190001143818370470A460021818B4FF6FF333C
:1021A00019404FF6FF7303EA0223194381837047F6
:1021B0000A460021018B4FF67F73194011430183BA
:1021C00070470A460021018BC1F30E014FF6FF73E1
:1021D00003EA02231943018370470A460021818BD9
:1021E0004FF67F7319401143818370470A460021DF
:1021F000818BC1F30E014FF6FF7303EA02231943EB
:10220000818370470A460021018C4FF6FD73194007
:102210001143018470470A460021018C4FF6F77381
:1022200019401143018470470A460021018C4FF682
:10223000DF7319404FF6FF7303EA02131943018459
:1022400070470A460021018C4FF67F7319404FF604
:10225000FF7303EA02131943018470470A46002101
:10226000018C4FF6FF5319404FF6FF7303EA022328
:102270001943018470470A460021018C4FF2FF7315
:1022800019404FF6FF7303EA022319430184704794
:102290000A460021018C4DF6FF7319404FF6FF737B
:1022A00003EA023319430184704730B50023012447
:1022B0008C40A3B2048C9C430484048C02FA01F584
:1022C000ADB22C43048430BD30B5002304248C40CF
:1022D000A3B2048C9C430484048C02FA01F5ADB2D1
:1022E0002C43048430BD70B50346002000241846FA
:1022F000183001258D40ACB21D8CA5431D8409B159
:10230000082909D100EB6100056825F0700505601A
:102310000568154305600EE00D1FC5F34E05284402
:10232000056825F4E045056005684FF6FF7606EA86
:1023300002263543056070BD21B1028842F00202D9
:10234000028004E002884FF6FD731A400280704755
:1023500021B1028842F00402028004E002884FF6B4
:10236000FB731A400280704721B1828842F08002DC
:10237000828004E082884FF67F731A408280704723
:1023800002884FF6F7731A40028002880A430280DF
:10239000704782884FF68F731A40828082880A4382
:1023A0008280704702894FF6F8731A4002810289D1
:1023B0000A430281704702894FF67F731A400281F7
:1023C00002890A4302817047818470478185704782
:1023D000818670470187704781877047A0F8401059
:1023E000704702884FF6FF431A40028002880A4372
:1023F000028070470146888E70470146088F7047FB
:102400000146888F70470146B1F840007047014689
:10241000888C70470146088D704702460020138A59
:102420000B4201D0012000E000207047CA43028225
:10243000704730B50246002000230024158A05EAC3
:102440000103958905EA010413B10CB1012000E0F4
:10245000002030BDCA4302827047000010B5044618
:10246000FB48844209D101218803FFF79BF8002132
:102470004FF48040FFF796F832E0F648844209D1E5
:1024800001214804FFF79BF800214FF40030FFF7CB
:1024900096F825E0F048844209D101218804FFF72D
:1024A0008EF800214FF48020FFF789F818E0EB4800
:1024B000844209D10121C804FFF781F800214FF4BB
:1024C0000020FFF77CF80BE0E548844208D10121A9
:1024D0000805FFF774F800214FF48010FFF76FF83C
:1024E00010BD2DE9F04786B005460E460024A246F1
:1024F00000BFA1460027B08900B100BF2F462C8A3B
:102500004CF6FF700440F08804432C82AC894EF6F0
:10251000F3100440B08831890843718908430443AB
:10252000AC81AC8A4FF6FF400440B0890443AC82D2
:1025300001A8FEF7B0FFC648874202D1DDF810A01F
:1025400001E0DDF80CA0A88910F4004F08D00AEBD8
:10255000CA0000EB0A1031684900B0FBF1F807E04F
:102560000AEBCA0000EB0A1031688900B0FBF1F8F1
:102570006420B8FBF0F004012009642101FB1089FC
:10258000A88910F4004F08D0322000EBC900B0FB3E
:10259000F1F000F00700044308E0322000EB0910DE
:1025A0006421B0FBF1F000F00F0004432C8106B071
:1025B000BDE8F0874FF41651016000218180C18091
:1025C00001810C21418100218181704710B50246B3
:1025D0000020108A4FF2FF0318400B884C882343D9
:1025E0008C882343CC8823431843108210BD0021DC
:1025F000018041808180C180704721B1828942F48D
:102600000052828104E082894DF6FF731A40828174
:102610007047F0B503460024002600250020A1F5F0
:1026200010676A3F00D100BF1846C1F3421401F0A1
:102630001F06012707FA06F5012C01D10C3004E032
:10264000022C01D1103000E014301AB107682F437A
:10265000076002E00768AF430760F0BD1AB1838AE4
:102660000B43838202E0838A8B4383827047028A12
:102670004FF6F0731A400282028A0A4302827047C0
:1026800082894FF2FF731A40828182890A438281D4
:10269000704721B1828942F00202828104E082897E
:1026A0004FF6FD731A4082817047028A4FF6DF733E
:1026B0001A400282028A0A430282704721B1028ACA
:1026C00042F48042028204E0028A4BF6FF731A4011
:1026D00002827047C1F308028280704701468888F1
:1026E000C0F308007047818941F001018181704782
:1026F000028BD2B20283028B42EA0122028370472C
:10270000028B02F47F420283028B0A4302837047EA
:1027100021B1828A42F02002828204E0828A4FF64E
:10272000DF731A408282704721B1828A42F0100220
:10273000828204E0828A4FF6EF731A4082827047E9
:1027400021B1828A42F00802828204E0828A4FF636
:10275000F7731A408282704721B1828942F40042A5
:10276000828103E08289C2F30E028281704721B127
:10277000828A42F40062828204E0828A4FF2FF730E
:102780001A4082827047828A4FF6FB731A40828217
:10279000828A0A438282704721B1828A42F0020211
:1027A000828204E0828A4FF6FD731A40828270476B
:1027B00002460020B1F5007F00D100BF13880B4214
:1027C00001D0012000E00020704701F40072B2F552
:1027D000007F00D100BFCA430280704770B5024637
:1027E0000024002300250020A1F510666A3E00D1D8
:1027F00000BFC1F3421501F01F03012606FA03F3DF
:10280000012D02D19689334006E0022D02D1168AAD
:10281000334001E0968A33400C12012606FA04F494
:102820001688344013B10CB1012000E0002070BDC7
:1028300010B500220023A1F510646A3C00D100BF4E
:102840000A1201249440A3B2DC43048010BD0000AE
:10285000003801400044004000480040004C004067
:102860000050004008B500F0C3FA01F086FD0220D8
:1028700001F093FD21A002F097FA0020F0234FF41D
:10288000A0720146009001F02BFE22A002F08CFA0B
:102890002BA002F089FA01F06AF92DA002F084FA67
:1028A00000BF01F0B1F90128FBD132A002F07CFA9F
:1028B00001F0A2F936A002F077FA00203B49087037
:1028C00000F020FA01203A49087015E037480078F6
:1028D000022811D100BFC00136494861202048615B
:1028E0000861C000086120204861086100BF01F054
:1028F000CFF900202D490870E8E700004C63645FC1
:102900004772616D5363616E28203220293B0D0AA6
:10291000000000004C43445F436C65617228302C1A
:1029200020302C203332302C203234302C204241C5
:10293000434B47524F554E44293B0D0A00000000BF
:10294000C9E3CFF1CDB7CAB5D1E90D0A0000000047
:102950004F76373732355F4750494F5F436F6E666A
:10296000696728293B5F5F5F737563636565640D05
:102970000A0000004F76373732355F496E69742898
:10298000293B5F5F5F737563636565640D0A0000D3
:102990005653594E435F496E697428293B5F5F5F08
:1029A000737563636565640D0A000000E70000202D
:1029B0003C0000200010014000B585B0012144F228
:1029C0000400FEF7D5FD4FF40070ADF8100018209C
:1029D0008DF8130003208DF8120004A92448FEF797
:1029E00011FB4FF48060ADF8100004208DF8130047
:1029F00004A91F48FEF706FB4FF4E13000900020C9
:102A0000ADF80400ADF80600ADF80800ADF80C0014
:102A10000C20ADF80A0069461648FFF762FD012256
:102A200040F225511348FFF7F4FD01211148FFF74B
:102A3000E4FD05B000BD70B504460D46E1B20D4899
:102A4000FFF748FE00BF80210A48FFF7B1FE0028CB
:102A5000F9D0204670BD10B5044600BF20210548BE
:102A6000FFF7A6FE0028F9D00248FFF737FE10BD99
:102A7000000801400038014000B585B00121042064
:102A8000FEF776FD01214804FEF77FFD0420ADF836
:102A9000100018208DF8130003208DF8120004A9EF
:102AA0007248FEF7AFFA0820ADF8100004208DF848
:102AB000130004A96D48FEF7A5FA4FF4E130009029
:102AC0000020ADF80400ADF80600ADF80800ADF840
:102AD0000C000C20ADF80A0069466548FFF701FDBF
:102AE000012240F225516248FFF793FD012240F296
:102AF00024415F48FFF78DFD01215D48FFF77DFD13
:102B000005B000BDF0B503460D4616460027294620
:102B10000A2E03D0002008702846F0BD33B93020BB
:102B200001F8010B002008702846F6E7002B03DAB5
:102B30002D2001F8010B5B4242F210720DE093FB75
:102B4000F2F404B937B104F1300001F8010B04FBD1
:102B5000123301270A2092FBF0F2002AEFDC00205A
:102B600008702846D9E70FB470B586B006460CA8A1
:102B7000019073E00B9800785C281CD10B98401CE6
:102B80000B9000786E2809D072280FD10D213046A5
:102B9000FFF7A0FD0B98401C0B900BE00A2130467C
:102BA000FFF798FD0B98401C0B9003E00B98401C1E
:102BB0000B9000BF4BE00B980078252840D10B9874
:102BC000401C0B900078642818D0732833D10198EA
:102BD00010C801900BE021783046FFF77BFD00BF65
:102BE00080213046FFF7E4FD0028F9D0641C2078EE
:102BF0000028F0D10B98401C0B9020E0019820C8D1
:102C000001900A2202A92846FFF77CFF02AC0BE0E4
:102C100021783046FFF75EFD00BF80213046FFF788
:102C2000C7FD0028F9D0641C20780028F0D10B984B
:102C3000401C0B9003E00B98401C0B9000BF06E07B
:102C40000B9810F8011B0B903046FFF743FD00BFB7
:102C500080213046FFF7ACFD0028F9D00B980078B2
:102C6000002887D106B070BC5DF814FB0008014055
:102C70000044004008B501210420FEF779FC032040
:102C8000ADF8000010208DF8030003208DF802003D
:102C900069461B48FEF7B6F901211948FEF75FFAAD
:102CA00002211748FEF759FA08BD08B5012141F283
:102CB0000400FEF75DFC1020ADF800008DF8030065
:102CC00003208DF8020069460D48FEF79BF920208D
:102CD000ADF8000018208DF8030069460848FEF79B
:102CE00091F98020ADF8000069460548FEF78AF9A1
:102CF0004020ADF8000069460148FEF783F908BDA1
:102D00000008014030B5284800684FF47A72B0FBE3
:102D1000F2F1B1F1807F01D301201DE021F07F406D
:102D2000401E4FF0E022506150170F22002807DAB2
:102D300013071D0E1D4B00F00F04241F1D5503E04B
:102D400013071C0E1A4B1C5400BF00204FF0E0224A
:102D5000906107201061002008B100BFFEE74FF02E
:102D6000E020006920F001004FF0E021086130BD53
:102D700001B51049009808604FF0E020006940F06C
:102D800001004FF0E021086100BF0A4800680028F8
:102D9000FBD108BD0748006820B106480068401E06
:102DA00004490860704700000400002018ED00E0AE
:102DB00000E400E04000002008B54FF4E060FDF7BB
:102DC00091FB26208DF8000001208DF801008DF880
:102DD00002008DF803006846FDF789FB25208DF879
:102DE000000000208DF801006846FDF780FB08BD5B
:102DF00010B5FFF73FFFFFF7DFFDFFF73DFEFFF7E1
:102E0000DBFF10BD00B58BB001210846FEF7A3FB28
:102E10000E4800900E48019000200290012003907F
:102E20000020049005900690079020200890C00193
:102E3000099000200A9069460648FDF763FC0121CD
:102E40000448FDF78AFC0BB000BD000004440040BC
:102E5000043801406C00024010B50446012C04D136
:102E60000121FA48FEF779F903E00121F748FEF75E
:102E700076F910BD10B50221F448FEF770F94FF451
:102E8000FA70FFF775FF0221F048FEF766F910BDF2
:102E90002DE9F04106460C4615461F46EC48B0F8B1
:102EA0000004C10BC903EA48A0F800143246E9A1A6
:102EB000EA48FFF758FE1CB915B90120BDE8F081BA
:102EC0003846FFF755FF0021E148B0F80004C0F391
:102ED0000E00DF4A11541146E1A001F065FFB4B1C4
:102EE000ADB12146DA4801F037FC08B1012000E01D
:102EF000002040B92946D64801F02EFC08B1012037
:102F000000E0002008B10120D8E70020D6E744B156
:102F10002146CF4801F020FC08B10120CEE7002077
:102F2000CCE72946CA4801F017FC08B10120C5E7E3
:102F30000020C3E710B50221C448FEF70EF94FF494
:102F40007A70FFF715FF01E0FFF794FFC823002216
:102F5000C4A1C5A0FFF79CFF0028F5D010BD10B597
:102F6000044624B1012C0AD0022C18D10FE040F6FF
:102F7000C413BEA2BBA1C0A0FFF78AFF10BD40F6DC
:102F8000C413BAA2B7A1BFA0FFF782FFF6E740F6CD
:102F9000C413B6A2B3A1BEA0FFF77AFFEEE70020EC
:102FA000ECE730B59FB004460D462B462246BBA148
:102FB00001A801F009FF41F658330022A9A101A898
:102FC000FFF766FF1FB030BD70B5A0B004460D46D8
:102FD00016462B462246B6A102A8009601F0F4FE42
:102FE0004FF47A7300229FA102A8FFF751FF20B08F
:102FF00070BD10B586B004460CB1012000E0002081
:103000000246B1A101A801F0DFFE4FF4FA730022DD
:1030100094A101A8FFF73CFF06B010BDF0B5B9B010
:1030200006460F4614461D46642120A801F089FB80
:1030300016B1012E10D107E03B46A7A2A7A120A8F8
:10304000009401F0C1FE08E03B46A8A2A3A120A87D
:10305000009401F0B9FE00E000BF00BF052D06DAC4
:1030600020AB2A46A2A102A801F0AEFE04E020AAED
:10307000A4A102A801F0A8FE4FF4FA73A5A279A1B9
:1030800002A8FFF705FF39B0F0BD70B5BCB004462B
:103090000D461646FCB12B460122A2A11EA801F046
:1030A00093FE3246A4A1684601F08EFE4FF4FA73F7
:1030B00000226CA11EA8FFF7EBFE50B14FF4FA738B
:1030C000002268A16846FFF7E3FE10B101203CB082
:1030D00070BD0020FBE72B46002292A11EA801F044
:1030E00073FE4FF4FA7300225EA11EA8FFF7D0FE14
:1030F000EDE710B54FF4FA7300225AA192A0FFF742
:10310000C7FE48B14FF4FA7393A294A194A0FFF7BD
:10311000BFFE08B1012010BD0020FCE72DE9F04101
:1031200086B007460C4615461E464FF000082FB1E4
:1031300022464BA14948FFF716FD1CE0052E06DA92
:10314000AB1C324689A101A801F03EFE04E0AA1C96
:103150008BA101A801F038FE4FF47A7300228CA1F4
:1031600001A8FFF795FE4FF47A73002289A120464B
:10317000FFF78EFE8046404606B0BDE8F08170B590
:10318000044600253248B0F80004C10BC90330489A
:10319000A0F80014B0F8000420F400412C48A0F876
:1031A000001400BF2A48B0F80004C00BFAD0002178
:1031B0002748B0F80004C0F30E00254A115434B17A
:1031C00065A1104601F0C8FA38B1214D05E073A1A0
:1031D0001F4801F0C1FA00B11D4D284670BD1CB555
:1031E00070A001F0E1FD40F6B830FFF7C1FD00200E
:1031F000FFF7B5FE00BF6FA0009070A00190DDE961
:103200000001FFF7CEFE0028F5D000BF05236FA216
:1032100070A10020FFF702FF0028F7D0FFF769FF39
:10322000012070490870052300226FA1FFF776FF87
:103230001CBD10B50446412C04D0422C03D0432CB5
:1032400002D1EAE0DEE0E3E0EDE00000000801404A
:103250005401002025730D0A0000000000440040C6
:10326000257300004F4B0000415400006E6F206337
:1032700068616E676500000041542B43574D4F4411
:10328000453D310041542B43574D4F44453D32009D
:1032900041542B43574D4F44453D330041542B433C
:1032A000574A41503D222573222C222573220000CB
:1032B00041542B43575341503D222573222C222544
:1032C00073222C312C25730041542B4349504D550A
:1032D000583D25640000000054435000222573220D
:1032E0002C222573222C2573000000005544500029
:1032F00041542B43495053544152543D25642C258D
:103300007300000041542B43495053544152543DE3
:1033100025730000414C5245415920434F4E4E45C4
:103320004354000041542B43495053455256455293
:103330003D25642C2573000041542B4349505354C0
:103340004F3D25730000000041542B4349504D4F21
:1033500044453D31000000003E0000000D0A000021
:1033600041542B43495053454E44000041542B4394
:10337000495053454E443D25642C2564000000000F
:1033800041542B43495053454E443D2564000000B1
:103390003E20000053454E44204F4B002B495044E3
:1033A000000000000D0A57694669CAB5D1E90D0A47
:1033B00000000000524959414F5300007269796181
:1033C0006F73726979616F730000000031323334BA
:1033D000000000003131342E3231352E3131312EA2
:1033E0003834000034000020776562706167653A08
:1033F0005468697320697320612077696669206465
:10340000656D6F0030214FF4FA7000F075F90AE035
:103410003021084600F070F905E04FF44871302083
:1034200000F06AF900BF00BF10BD10B50446442C7F
:1034300004D0452C0BD0462C19D110E06FF01D00A4
:1034400000F0E7F84FF47A60FFF792FC0FE01E20DF
:1034500000F0DFF84FF47A60FFF78AFC07E0002005
:1034600000F0D7F84FF47A60FFF782FC00BF00BF8E
:1034700010BD2DE9F041054600272E4600BF06E0AD
:103480003846791CCFB2544941F82040002653A158
:10349000304601F073F90400F2D1BDE8F08170B557
:1034A00004460D464C4909680878FFF7C2FE4A49B0
:1034B00049680878FFF7B9FF70BD10B50446A4F15C
:1034C000410006282ED2DFE800F003090E141D2566
:1034D00030214FF4FA7000F00FF923E03021084654
:1034E00000F00AF91EE04FF44871302000F004F9B2
:1034F00018E06FF01D0000F08CF84FF47A60FFF7D1
:1035000037FC0FE01E2000F084F84FF47A60FFF7DC
:103510002FFC07E0002000F07CF84FF47A60FFF702
:1035200027FC00BF00BF10BD70B50646A6F14400E1
:10353000052817D2DFE800F003070B0E12004FF446
:10354000FA7430250EE04FF4967430250AE03024EA
:10355000302507E030244FF4967503E030244FF413
:10356000FA7500BF00BF2946204600F0C5F870BDBF
:1035700070B50546A5F14900052810D2DFE800F036
:10358000030507090C003C2409E01E2407E0002481
:1035900005E04FF6E27402E04FF6C47400BF00BFCE
:1035A000204600F036F870BD70B504460D46207810
:1035B000412803D12878FFF7B7FF0CE02078422894
:1035C00003D12878FFF7D4FF05E02078432802D103
:1035D00001200349087070BD2C0000202C00000061
:1035E0003C00002008B501210220FDF7CEFF01219B
:1035F0000420FDF7BDFF8020ADF8000018208DF8F5
:10360000030003208DF8020069462748FDF7FAFC05
:1036100008BD2DE9F04F87B08246504601F061FAAF
:103620008046224A224B01F072F906460022214BC5
:1036300001F0C6F8044601F092FA8346584601F0BC
:1036400061FA044601F044FA834640F2E730ADF8EF
:10365000140040F29F50ADF810000020ADF81600A5
:10366000ADF8120004A91448FEF7BEF86020ADF8CA
:1036700000000120ADF80200584601F05CFA80B26B
:10368000ADF806000020ADF8080069460A48FEF7CC
:103690002AF908210848FEF73CFD01210648FEF7FB
:1036A000FFFB07B0BDE8F08F000801406744696F79
:1036B000F085E13F00C052400004004008B5012100
:1036C0000220FDF762FF01210C20FDF751FF402091
:1036D000ADF8000018208DF8030003208DF80200DB
:1036E00069462248FDF78EFC0120ADF800006946CE
:1036F0001F48FDF787FC08BD30B587B005460C466E
:1037000040F2E730ADF814000020ADF81000ADF83D
:103710001600ADF8120004A91648FEF765F86020FF
:10372000ADF800000120ADF80200ADF80650002011
:10373000ADF8080069460F48FEF793F808210D48D8
:10374000FEF7DEFC0120ADF80200ADF80640694648
:103750000848FEF715F908210648FEF7E7FC0121A5
:103760000448FEF79DFB07B030BD00000008014093
:10377000000C0140000400407FB504460D460121C5
:103780000846FDF702FF41F28830ADF8080041F627
:103790001F40ADF804000020ADF80A00ADF80600A7
:1037A00001A94FF08040FEF71FF801210220FDF72C
:1037B000ECFE41F28830ADF8080041F61F40ADF84C
:1037C00004000020ADF80A00ADF8060001A92C485D
:1037D000FEF70AF801210420FDF7D7FE41F28830F8
:1037E000ADF8080041F61F40ADF804000020ADF828
:1037F0000A00ADF8060001A92248FDF7F5FF0122F5
:1038000041211F48FEF767FB012241218807FEF78F
:1038100062FB012241211B48FEF75DFB1C208DF855
:10382000000000208DF8010003208DF80200012027
:103830008DF803006846FCF75AFE7FBD10B50121E4
:103840008807FEF7F6FD18B101218807FEF702FE92
:1038500010BD10B501210A48FEF7EBFD18B101219A
:103860000748FEF7F7FD10BD10B501210548FEF72A
:10387000E0FD18B101210348FEF7ECFD10BD00008A
:1038800000040040000800401FB501214348FDF737
:1038900088FC01210520FDF76BFE4FF48070ADF828
:1038A0000C0010208DF80F0003208DF80E0003A9E6
:1038B0003B48FDF7A7FB0220ADF80C0028208DF84F
:1038C0000F0003A93648FDF79DFB01210020FDF7FD
:1038D000ADFC0220019000208DF8080008208DF832
:1038E000090001208DF80A0001A8FCF79FFF0720BE
:1038F0008DF8000002208DF801008DF802000120F3
:103900008DF803006846FCF7F2FD1FBD2DE9F0417C
:103910000120FFF72DFA0220FCF7EEFF50B3002143
:103920002048FEF751FD01211E48FEF7B9FA00BFFD
:1039300002211B48FDF7F7FB0028F9D100211948A7
:10394000FEF7AEFA1748FEF762FD00EB800000EBD1
:1039500000104400204601F0C4F805460022124B36
:1039600001F047F8074601F0FAF810490860022014
:10397000FCF7D3FFBDE8F08110B54FF48071084823
:10398000FDF7EBFB0220FFF7F3F94FF480710448D9
:10399000FDF7E5FB0548006810BD0000000230009F
:1039A000000801400004004000005940440000208D
:1039B0001FB501214448FDF7F4FB01211120FDF75B
:1039C000D7FD4FF48070ADF80C0010208DF80F007B
:1039D00003208DF80E0003A93C48FDF713FB80205F
:1039E000ADF80C0028208DF80F0003A93748FDF72B
:1039F00009FB07210220FDF719FC8020019000201F
:103A00008DF8080008208DF8090001208DF80A00C3
:103A100001A8FCF70BFF17208DF8000002208DF89D
:103A200001008DF8020001208DF803006846FCF7C4
:103A30005EFD1FBD2DE9F0410120FFF799F98020BF
:103A4000FCF75AFF68B300214FF08040FEF7BCFC42
:103A500001218807FEF724FA00BF80211B48FDF7EB
:103A600062FB0028F9D100214FF08040FEF718FAE0
:103A70004FF08040FEF7CBFC00EB800000EB001025
:103A80004400204601F02DF805460022104B00F0BE
:103A9000B0FF074601F063F80E4908608020FCF78C
:103AA0003CFFBDE8F08110B54FF480710748FDF789
:103AB00054FB0220FFF75CF94FF480710348FDF7D7
:103AC0004EFB0448006810BD0002300000100140A9
:103AD000000059404800002008B501213C20FDF7B6
:103AE00047FD10208DF8030003208DF802004FF4ED
:103AF0008070ADF8000069467948FDF783FA4FF40D
:103B000080717748FDF729FB0820ADF80000694671
:103B10007448FDF777FA2020ADF800006946724836
:103B2000FDF770FA4FF44070ADF8000069466F4839
:103B3000FDF768FA2020ADF8000069466B48FDF7F4
:103B400061FA4FF47F40ADF8000004208DF80300C7
:103B500003208DF8020069466348FDF753FA0820F8
:103B60005F49143108605F491031086008BD10B525
:103B700000F00CF9FFF7B0FF10BD08B501210420DB
:103B8000FDF7F6FC0120ADF8000004208DF80300DD
:103B900003208DF8020069465148FDF733FA08BD4D
:103BA00008B54FF4C060FCF79DFC06208DF80000BE
:103BB00000208DF8010003208DF8020001208DF80F
:103BC00003006846FCF793FC08BD1CB500210846BD
:103BD000FDF72CFB0120009000208DF804000C2044
:103BE0008DF8050001208DF806006846FCF71EFEE2
:103BF0000120FCF76AFE1CBD10B5FFF7BEFFFFF702
:103C0000E4FFFFF7CDFF10BD38B500240020009081
:103C100037A001F0C9F88021122000F0BDF920B9C9
:103C20003CA001F0C1F8002038BD0B2201216846FC
:103C300000F0D2F920B93DA001F0B6F80020F3E77A
:103C40009DF800103DA001F0AFF89DF8000021287C
:103C500017D1002410E03E4A02EB440251783C4A5E
:103C600012F8140000F098F920B93AA001F09CF87D
:103C70000020D9E7601C84B23A4800788442EADB2D
:103C800001E00020D0E738A001F08EF80120CBE75A
:103C900010B5002020E0002219E000BF0021202301
:103CA000124C6361104B08331B6803F47F412023DF
:103CB000236163610C4B08331B68C3F3072319436B
:103CC0002023236100BF304B1980531C9AB2B2F5F8
:103CD000A07FE2DB431C98B2F028DCDB10BD0000C3
:103CE0000008014000140140000C01400010014098
:103CF0006F76373732352052656769737465722085
:103D0000436F6E6669672053746172742E2E2E2E77
:103D10002E2E0000736363622077726974652064DD
:103D2000617461206572726F720000007265616477
:103D3000206964206661696C6400000053656E73DD
:103D40006F72204944206973203078257800000084
:103D50004C00002077726974652072656720666187
:103D6000696C6400E60000206F76373732352052E8
:103D70006567697374657220436F6E666967205367
:103D800075636365737300000000026008B501216C
:103D90001020FDF7EDFBC020ADF8000003208DF8EA
:103DA000020014208DF803006946AA48FDF72AF99D
:103DB00008BD4FF4C87001E0411E88B20028FBD155
:103DC000704710B58021A348FDF7C7F94021A148ED
:103DD000FDF7C3F9FFF7EDFF80219E48FDF7A3F93A
:103DE00008B9002010BD80219A48FDF7B8F9FFF707
:103DF000E0FF80219748FDF796F908B10020F1E730
:103E000080219448FDF7ABF9FFF7D3FF0120E9E7E4
:103E100010B540218F48FDF7A2F9FFF7CAFF8021B6
:103E20008C48FDF79CF9FFF7C4FF40218948FDF756
:103E300094F9FFF7BEFF80218648FDF78EF9FFF762
:103E4000B8FF10BD10B540218248FDF788F9FFF793
:103E5000B0FF80217F48FDF782F9FFF7AAFF4021DC
:103E60007C48FDF77AF9FFF7A4FF40217948FDF778
:103E700076F9FFF79EFF10BD10B540217548FDF79C
:103E80006EF9FFF796FF80217248FDF766F9FFF79C
:103E900090FF40216F48FDF760F9FFF78AFF40214E
:103EA0006C48FDF75CF9FFF784FF10BD10B54021A9
:103EB0006848FDF754F9FFF77CFF80216548FDF75E
:103EC0004CF9FFF776FF40216248FDF746F9FFF70E
:103ED00070FF80215F48FDF726F928B140215D4839
:103EE000FDF73DF9002010BD40215A48FDF737F994
:103EF0000120F8E770B5044608251BE0402155482D
:103F0000FDF72DF9FFF755FF14F0800F04D0802145
:103F10005048FDF722F903E080214E48FDF71FF9D4
:103F20006006040EFFF745FF40214A48FDF715F9EA
:103F3000FFF73FFF2800A5F10101CDB2DED14021FE
:103F40004448FDF70CF970BD70B5082500248021A8
:103F50004048FDF702F914E06006040E40213D4898
:103F6000FDF7FDF8FFF725FF40213A48FDF7F5F88A
:103F7000FFF71FFF80213748FDF7D5F808B144F05F
:103F800001042800A5F10101CDB2E5D1402131485D
:103F9000FDF7E5F8204670BD70B504460D46FFF705
:103FA00010FF08B9002070BD4220FFF7A3FFFFF704
:103FB0007DFF18B9FFF72CFF0020F4E7E0B2FFF710
:103FC00099FFFFF773FF2846FFF794FFFFF76EFF97
:103FD000FFF71EFF0120E6E770B505460C461646C2
:103FE000FFF7EFFE08B9002070BD4220FFF782FF07
:103FF000FFF75CFF18B9FFF70BFF0020F4E730462E
:10400000FFF778FFFFF752FFFFF702FFFFF7D9FE38
:1040100008B90020E8E74320FFF76CFFFFF746FFF1
:1040200018B9FFF7F5FE0020DEE70CE0FFF78CFF84
:104030002870012C02D1FFF71FFF01E0FFF702FFFC
:104040006D1C601E84B2002CF0D1FFF7E1FE012050
:10405000CAE700000010014001B502E00098401ED0
:10406000009000980028F9D108BD08B50121080288
:10407000FDF771FA01216820FDF77AFA10208DF81A
:10408000030003208DF802000220ADF8000069460D
:10409000FE48FCF7B7FF03208DF8020018208DF8CA
:1040A00003004CF20370ADF800006946F848FCF7D5
:1040B000A9FF4FF68070ADF800006946F348FCF7A1
:1040C000A1FF1020ADF800006946F148FCF79AFF07
:1040D0002020ADF800006946ED48FCF793FF8020F2
:1040E000ADF800006946EA48FCF78CFF4FF4006029
:1040F000ADF800006946E648FCF784FF10208DF813
:10410000030003208DF802000220ADF8000069468C
:10411000E048FCF777FF0221DE48FDF720F808BDF4
:1041200000B597B002200190002002900520039076
:1041300000200490059006904FF0805007900020DA
:104140000890099008200A9010200B9000200C90F5
:104150000E900F9010904FF480501190002012900C
:104160001390149001A81590169008A8FCF72DFC48
:1041700001210020FCF78AFD17B000BD10B5022117
:10418000C248FCF7ECFFC448FFF766FF0221BF48B6
:10419000FCF7E3FFC048FFF75FFF10BD00B5CF207D
:1041A0004FF0C04108800020BC4908808120088071
:1041B00030200880ED204FF0C04108806420B749CE
:1041C0000880032008801220088081200880E820D1
:1041D0004FF0C04108808520B04908801020088039
:1041E00078200880CB20410708803920AB4908801F
:1041F0002C200880002008803420088002200880BD
:10420000F7204FF0C04108802020A4490880EA2010
:104210004FF0C04108800020A04908800880B120EC
:104220004FF0C041088000209C4908801B20088076
:10423000B620010708800A2098490880A22008803B
:10424000C020C1050880352094490880C1204FF066
:10425000C0410880112091490880C5204FF0C0411D
:10426000088045208D4908800880C7204FF0C04154
:104270000880A22089490880F2204FF0C0410880C0
:1042800000208649088026200107088001208349F4
:104290000880E0204FF0C04108800F207F4908804F
:1042A00026200880242008800B2008800E2008800B
:1042B0000920088054200880A82008804620088013
:1042C0000C20088017200880092008800F20088013
:1042D0000720088000200880E1204FF0C0410880BE
:1042E00000206E490880192008801B2008800420C7
:1042F000088010200880072008802A200880472096
:104300000880392008800320088006200880088063
:1043100030200880382008800F20088036200107D0
:104320000880C8205D4908802A204FF0C0410880DD
:1043300000205A49088008800880EF2008802B2040
:104340004107088000205549088008800120088026
:104350003F2008803A204FF0C041088055204F4947
:10436000088011204FF0C04108804B48FFF774FED1
:1043700029204FF0C041088000BD10B5FFF775FE41
:1043800047A000F011FDFFF7CBFEFFF7F7FEFFF7A8
:1043900005FF49A000F008FD10BD012806D0022845
:1043A00021D003283CD004281CD156E036210A072E
:1043B0001180C821394A11802A214FF0C042118052
:1043C0000021364A118011801180EF2111802B21AC
:1043D0004A0711800021314A11801180012111808A
:1043E0003F21118077E036210A07118068212B4A8E
:1043F00011802A214FF0C04211800021274A1180EC
:104400001180012111803F2111802B214A07118049
:104410000021224A118011801180EF2111805AE081
:1044200036210A07118028211C4A11802A214FF0C9
:10443000C04211800021194A118011800121118090
:104440003F2111802B214A0711800021134A11803E
:1044500011801180EF2111803DE036210A07118083
:1044600048210E4A11802A214FF0C04211800021BC
:104470000A4A118011801180EF2111802B214A07F7
:1044800011800021054A118011801FE000180140B1
:1044900000140140000C0140FCBF0200000002605B
:1044A0004C43445F4750494F5F436F6E66696728CE
:1044B000293B0D0A000000004C43445F5245475F12
:1044C000436F6E66696728293B0D0A000121118040
:1044D0003F21118000BF00BF2C21CA061180704708
:1044E000F0B5059D00242A264FF0C0473E800612F5
:1044F0008E4F3E80C6B23E808618761EC6F30F26CB
:104500003E808618761EF6B23E802B2677073E80C8
:104510000E12864F3E80CEB23E80CE18761EC6F377
:104520000F263E80CE18761EF6B23E802C26F70669
:104530003E8000BF02E07D4E3580641C02FB03F626
:10454000A642F8D8F0BD2A224FF0C0431A800212CA
:10455000764B1A80C2B21A8002121A80C2B21A8036
:104560002B2253071A800A12704B1A80CAB21A8083
:104570000A121A80CAB21A80704730B52A244FF046
:10458000C0452C800412694D2C80C4B22C80841844
:10459000641EC4F30F242C808418641EE4B22C80A3
:1045A0002B2465072C800C12604D2C80CCB22C8003
:1045B000CC18641EC4F30F242C80CC18641EE4B203
:1045C0002C8030BD70B505460E461446314628464F
:1045D000FFF7B9FF2C20C10608805448048070BD45
:1045E00010B500210022002350480188018803886B
:1045F0000288C812C002941240EA441040EAE32044
:1046000010BD70B504460D4629462046FFF79BFFB6
:104610002E204FF0C0410880FFF7E2FF06463046EB
:1046200070BD2DE9F04F81468A4615461E46A5F11C
:1046300020001FFA80FB0C23062251464846FFF754
:104640009CFF2C20C1060880002419E00BEB4B00D6
:10465000374901EB800010F8048000270CE018F0C7
:10466000010F02D03148068002E000202F49088067
:104670004FEA6808781C87B2062FF0DB601C84B212
:104680000C2CE3DBBDE8F08FF0B505460E46144672
:104690001F4613E0EA2D03DD002506F10C0086B26B
:1046A000B6F59A7F01DD0025002622783B4631468B
:1046B0002846FFF7B6FFA81D85B2641C20780028A5
:1046C000E8D1F0BD2DE9F0470646884614469946E4
:1046D0000027002525463DB94B463022414630464D
:1046E000FFF79FFFBDE8F08703E00A20B5FBF0F578
:1046F0007F1C002DF9D115E00A20B4FBF0F100FB7E
:10470000114000F1300A39467F1E062202FB01618A
:10471000891F88B24B4652464146FFF782FF0A2066
:10472000B4FBF0F4002CE7D100BFDBE7000002602F
:10473000DA500008D2B201E000F8012B491EFBD28A
:1047400070470022F6E710B513460A46044619469C
:10475000FFF7F0FF204610BD30B505462A460B4650
:1047600012F8010B13F8014B08B1A042F8D01CB1AC
:10477000002802D06D1CF1E7284630BD70B50F4D02
:1047800000B92868002412E00A4602E09E4203D0E5
:10479000521C1378002BF9D1DAB2224305D02BB189
:1047A00024B1002100F8011B04E00446401C0678F7
:1047B000002EE9D12860204670BD0000E8000020EE
:1047C0002DE9FE4F804681EA0300C00F0C460090A1
:1047D00021F0004123F00045B8EB0200A94105D2C9
:1047E0004046214690461C460B46024623F00040B8
:1047F000104304D14046214603B0BDE8F08F270D99
:10480000C7F30A00C3F30A510290401A01904028EE
:1048100066DAC3F3130040F4801B0098924620B17F
:104820000023D2EB030A63EB0B0B01985946C0F14E
:104830004002504600F0E0F906460D465046594603
:10484000019A00F0E8F910EB08006141002487EAC2
:10485000115284EAE7731A433BD0009A3AB3019AA3
:10486000012A4FEA075210DC001B61EB02014FF0F6
:10487000004202EA0752CDE90042001C41F58011D6
:1048800032462B4600F01CFAB6E7001B61EB020132
:10489000001C41F5801300185B412018A2F5001799
:1048A00047EB030140EAD570B6196D4111E06D0880
:1048B0004FEA360645EAC0754FEA0752001B61EB26
:1048C0000201001C41F5801149084FEA300000192F
:1048D000514132462B4603B0BDE8F04F00F0E3B93A
:1048E0000098012240000023D0EB020263EBE0734A
:1048F000009821464FEAE074B8EB000061EB040138
:10490000E9E783F000435BE781F0004158E72DE9D8
:10491000FE4F81EA030404F0004421F000410094BA
:104920004FF0000B23F0004350EA010402D052EA9A
:10493000030404D10020014603B0BDE8F08FC3F3A7
:104940000A54C1F30A552C44A4F2F3340194A0FB99
:104950000254C1F3130141F48011C3F3130343F470
:10496000801301FB024400FB034E840A970A44EAC9
:10497000815447EA8357A4FB076802958D0A05FB1B
:1049800007854FEA932C04FB0C542705029D4FEA40
:10499000065847EA1637B5EB08056EEB070C870E8D
:1049A000920E47EA811742EA8312A7FB0201B6EB97
:1049B0000B0164EB00042B0D43EA0C335E1844EB4F
:1049C0001C50DA465146E7FB0201C5F313044FEAD7
:1049D0000B3343EA14534FEA0432019C43EA0603C3
:1049E000A4F10C040294009CCDE900B400F068F935
:1049F000A2E72DE9F04D81EA030404F0004B21F019
:104A0000004514464FF0000A23F0004150EA050229
:104A100020D054EA01021DD0C5F30A570246C5F35F
:104A20001303C1F31300C1F30A5640F4801543F495
:104A30008013A7EB0608101BD64608F2FD3873EB6F
:104A4000050002D308F1010801E092185B41B8F1BA
:104A5000000F03DA00200146BDE8F08D00204FF47E
:104A60008011064684460EE0171B73EB050705D33D
:104A7000121B63EB050306434CEA010C49084FEA9D
:104A8000300092185B4150EA0107EDD152EA030071
:104A900012D082EA040083EA0501084303D1002210
:104AA0004FF0004308E0101BAB4102D2012200236B
:104AB00002E06FF0010253101AEB06004CEB0851B4
:104AC00010EB0A0041EB0B01BDE8F04D00F0EBB834
:104AD000C10F80EAE0700844CA079623002100F065
:104AE000B5B80EB5C10F80EAE0700844CA070021CE
:104AF00040F233438DE80E000A460B4600F0E0F822
:104B000003B000BD00F0004220F00040C10DC0F332
:104B1000160040F400007F2901DA00207047962932
:104B200003DCC1F19601C84001E096398840002AB3
:104B3000F4D04042704720F00040C10DC0F3160091
:104B400040F400007F2901DA00207047962903DC39
:104B5000C1F19601C840704796398840704701F00E
:104B6000004330B421F0004150EA010206D00A0DA2
:104B7000A2F56072C1F31301002A02DC30BC0020F0
:104B80007047440F44EAC104C100E01830BC00EB98
:104B9000C25000F052B82DE9F05F05460020924661
:104BA0009B4688460646814640241BE028464146EF
:104BB0004746224600F0E8F853465A46C01A91414B
:104BC00010D311461846224600F016F82D1A67EB4E
:104BD00001084F4622460120002100F00DF817EB96
:104BE00000094E41201EA4F10104DFDC4846314695
:104BF0002A464346BDE8F09F202A04DB203A00FA0B
:104C000002F1002070479140C2F1200320FA03F323
:104C1000194390407047202A06DBCB17203A41FA0F
:104C200002F043EAE07306E041FA02F3D040C2F139
:104C3000200291400843194670470029A8BF7047D9
:104C4000401C490008BF20F00100704710B4B0FAC2
:104C500080FC00FA0CF050EA010404BF10BC70475D
:104C600049B1CCF1200421FA04F411FA0CF118BF77
:104C7000012121430843A3EB0C01CB1D0106000ACF
:104C8000002BBEBF002010BC704700EBC350104487
:104C90000029A4BF10BC7047401C490008BF20F089
:104CA000010010BC704710B5002B08DA401C41F120
:104CB000000192185B411A4301D120F0010010BDA0
:104CC0002DE9F04D92469B4611B1B1FA81F202E016
:104CD000B0FA80F220329046FFF78EFF04460F466E
:104CE00040EA0A0041EA0B0153465A46084303D101
:104CF00020463946BDE8F08D114653EA010015D033
:104D0000C8F14002504600F03FF805460E465046B6
:104D100059464246FFF770FF084301D0012000E0EA
:104D20000020054346EAE0762C4337430A984FEAD1
:104D30004453A0EB08004FEAD4240A304FF000029D
:104D400044EA47544FEAD72502D500200146D1E76F
:104D5000010510196941DDE9084500196941BDE8FF
:104D6000F04DA0E7064C074D06E0E06840F0010377
:104D700094E8070098471034AC42F6D3FBF7DCF90F
:104D80005055000870550008202A04DB203A21FA0B
:104D900002F00021704721FA02F3D040C2F1200254
:104DA00091400843194670470FB4054B10B503A94D
:104DB000044A029800F02CF810BC5DF814FB0000C7
:104DC000372A0008EC0000200FB4084B10B504A9E6
:104DD00002AA039800F01CF8044602A9002000F083
:104DE00077F9204610BC5DF814FB0000D150000894
:104DF00002E008C8121F08C1002AFAD170477047A4
:104E0000002001E001C1121F002AFBD17047000001
:104E10002DE9FF4F8DB09B460F460446002638E132
:104E2000252801D00F9959E00025641C9D49A8460A
:104E300001222378203B02FA03F0084202D0054306
:104E4000641CF6E720782E2817D114F8010F45F0DE
:104E500004052A280ED06FF02F022078A0F130012F
:104E600009290AD808EB880102EB410100EB01088F
:104E7000641CF2E757F8048B641C20786C280DD072
:104E800004DC4C2812D06A2811D104E074280DD01B
:104E90007A280CD10AE045F4001507E0617845F462
:104EA0008015814202D1641C05F58015641C2278AE
:104EB000692A46D008DC002A70D0582A69D0632AB3
:104EC00011D0642A08D13CE0702A69D0732A14D02A
:104ED000752A5CD0782A5CD00F9910465A469047C4
:104EE00006F10106D4E017F8040B8DF8000000204D
:104EF0008DF80100E946012003E057F8049B4FF0CC
:104F0000FF3069074FF0000501D40AE06D1C4545EC
:104F10000DDA8542FADB19F805100029F6D106E012
:104F20006D1C8542FCDB19F805100029F8D12E44D0
:104F300004E019F8010B5A460F9990476D1EF8D2FC
:104F4000A6E00A200021CDE90801C5F3025002289D
:104F50000BD001CFC11700290EDA4FF0000CD0EBB7
:104F60000C006CEB01012D2309E007F1070727F086
:104F70000707F7E80201EEE72B0504D52B238DF890
:104F80002830012330E0EB072ED02023F7E70A205A
:104F900000E010200021CDE9080109E07DE0FFE7F5
:104FA0001020002145F00405CDE908014FF0080864
:104FB000C5F3025002281BD001CF00214FF0000A98
:104FC0002B0712D5702A19D0DDE908C38CF0100C1C
:104FD0005CEA030C09D150EA010306D030238DF8B6
:104FE00028308DF8292002239A46582A10D00AE04A
:104FF000FF1D27F00707F7E80201DFE740228DF8E1
:1050000028204FF0010A28A20DF120090B9209E097
:105010002AA2F9E7DDE90823FFF7BDFD0B9B9B5CA6
:1050200009F8013D50EA0102F4D1ADEB090000F1AD
:1050300020000890680701D44FF0010808998845BE
:1050400002DDA8EB010000E000208046002506E01C
:105050000AA85A46405D0F999047761C6D1C55452D
:10506000F6DB04E030205A460F999047761CB8F1E1
:105070000001A8F10108F5DC05E019F8010B5A461A
:105080000F999047761C0899481E08900029F4DC77
:10509000641C207800287FF4C3AE11B03046BDE810
:1050A000F08F0000092801003031323334353637B3
:1050B0003839616263646566000000003031323364
:1050C0003435363738394142434445460000000004
:1050D0000A68531C0B60107070470000000000004D
:1050E00000000000000000000404040404040004A4
:1050F000000000140A0A0000000000000000000088
:1051000014143F140A3F0A0A000000041E15050685
:105110000C14150F0400000012150D0A142C2A128D
:1051200000000000040A0A1E1515093600000002DE
:105130000201000000000000000000201008080824
:1051400008080810200000020408080808080804DD
:10515000020000000004150E0E15040000000000FF
:105160000404041F04040400000000000000000008
:1051700000000002020100000000001F000000000B
:10518000000000000000000000000002000000100D
:105190000808080404020202010000000E111111A7
:1051A0001111110E00000000040604040404040E92
:1051B000000000000E1111080402011F0000000091
:1051C0000E11100C1010110E00000000080C0A0A3D
:1051D000091E0818000000001F01010F1010110E19
:1051E000000000000E09010F1111110E0000000057
:1051F0001F09080404040404000000000E11110E2D
:105200001111110E000000000E1111111E10120ECE
:105210000000000000000400000000040000000086
:105220000000000400000004040000201008040234
:10523000040810200000000000001F00001F0000F4
:105240000000000204081020100804020000000002
:105250000E11110804040004000000000E111915BD
:10526000151D011E0000000004040C0A0A1E123362
:10527000000000000F12120E1212120F00000000A8
:105280001E1101010101110E000000000F12121287
:105290001212120F000000001F120A0E0A02121F43
:1052A000000000001F120A0E0A02020700000000A0
:1052B0001C1201013911120C000000003312121EE1
:1052C00012121233000000001F0404040404041F1F
:1052D000000000003E080808080808090700000050
:1052E00037120A060A0A12370000000007020202FB
:1052F0000202223F000000001B1B1B1B1515151589
:10530000000000003B1216161A1A121700000000C7
:105310000E1111111111110E000000000F12120ECA
:1053200002020207000000000E1111111117190EE0
:10533000180000000F12120E0A12123700000000AF
:105340001E1101060810110F000000001F150404B3
:105350000404040E00000000331212121212120C88
:10536000000000003312120A0A0C040400000000BE
:105370001515150E0A0A0A0A000000001B0A0A0485
:10538000040A0A1B000000001B0A0A040404040E9D
:10539000000000001F0908040402121F0000001C86
:1053A00004040404040404041C00000202020404B3
:1053B000080808100000000E080808080808080877
:1053C0000E0000040A0000000000000000000000C1
:1053D0000000000000000000003F0004000000008A
:1053E00000000000000000000000000C121C123C35
:1053F000000000000302020E1212120E0000000054
:105400000000001C1202021C000000001810101CFA
:105410001212123C000000000000000C121E021CC0
:10542000000000003804041E0404041E00000000F4
:105430000000003C120C021E221C00000302020E9F
:105440001212123700000000040000060404040ECB
:10545000000000000800000C080808080807000009
:105460000302023A0A0E1237000000000704040487
:105470000404041F000000000000000F151515159E
:10548000000000000000000F1212123700000000A0
:105490000000000C1212120C000000000000000FAF
:1054A0001212120E020700000000001C1212121C41
:1054B000103800000000001B060202070000000078
:1054C0000000001E020C101E000000000004040E6C
:1054D00004040418000000000000001B1212123C1B
:1054E0000000000000000037120A0C040000000059
:1054F00000000015150E0A0A000000000000001B45
:105500000A040A1B0000000000000037120A0C0405
:10551000040300000000001E0804041E0000001820
:1055200008080804080808081800080808080808F7
:105530000808080808080006040404080404040411
:1055400006000225180000000000000000003000E6
:105550007055000800000020F0000000F04D000829
:1055600060560008F000002068080000004E0008A7
:105570000000000000A24A0400000000000000003B
:1055800001020304060708090000000001020304E9
:105590000102030406070809020406084E55000824
:1055A0004E55000800000000000000000000000050
:1055B0000000000000000000000000001100124682
:1055C000173F185019031A78320029502C782A00F6
:1055D000427F4D0963E064FF65206600670013F0B9
:1055E0000D810FC5142122FF23012434253C26A15F
:1055F0002B006BAA13FF695D900A91019201930140
:10560000945F95539611971A983D995A9A1E9B004C
:105610009C25A765A8659E81A6067E0C7F16802A1C
:10562000814E8261836F847B8586868E879788A46E
:1056300089AF8AC58BD78CE88D20A980AA80ACFF62
:105640003300229923034A00491347084B144C178F
:1056500046050CD00EF54D000000000000000000D3
:0400000508000131BD
:00000001FF
